{
	"simplestorage.sol": {
		"simplestorage": {
			"abi": [
				{
					"anonymous": false,
					"inputs": [
						{
							"indexed": false,
							"internalType": "uint256",
							"name": "newNumber",
							"type": "uint256"
						},
						{
							"indexed": false,
							"internalType": "address",
							"name": "updatedBy",
							"type": "address"
						}
					],
					"name": "NumberUpdated",
					"type": "event"
				},
				{
					"inputs": [],
					"name": "activatecontract",
					"outputs": [],
					"stateMutability": "nonpayable",
					"type": "function"
				},
				{
					"inputs": [
						{
							"internalType": "string",
							"name": "_name",
							"type": "string"
						},
						{
							"internalType": "uint256",
							"name": "_favoriteNumber",
							"type": "uint256"
						}
					],
					"name": "addPerson",
					"outputs": [],
					"stateMutability": "nonpayable",
					"type": "function"
				},
				{
					"inputs": [
						{
							"internalType": "string",
							"name": "_name",
							"type": "string"
						},
						{
							"internalType": "uint256",
							"name": "_favoriteNumber",
							"type": "uint256"
						}
					],
					"name": "addPersonstringname",
					"outputs": [],
					"stateMutability": "nonpayable",
					"type": "function"
				},
				{
					"inputs": [],
					"name": "callInternalFunction",
					"outputs": [
						{
							"internalType": "string",
							"name": "",
							"type": "string"
						}
					],
					"stateMutability": "pure",
					"type": "function"
				},
				{
					"inputs": [
						{
							"internalType": "string",
							"name": "_inputString",
							"type": "string"
						}
					],
					"name": "concatenateString",
					"outputs": [
						{
							"internalType": "string",
							"name": "",
							"type": "string"
						}
					],
					"stateMutability": "pure",
					"type": "function"
				},
				{
					"inputs": [],
					"name": "deactivatecontract",
					"outputs": [],
					"stateMutability": "nonpayable",
					"type": "function"
				},
				{
					"inputs": [],
					"name": "externalFunction",
					"outputs": [
						{
							"internalType": "string",
							"name": "",
							"type": "string"
						}
					],
					"stateMutability": "pure",
					"type": "function"
				},
				{
					"inputs": [],
					"name": "favoriteNumber",
					"outputs": [
						{
							"internalType": "uint256",
							"name": "",
							"type": "uint256"
						}
					],
					"stateMutability": "view",
					"type": "function"
				},
				{
					"inputs": [
						{
							"internalType": "uint256",
							"name": "",
							"type": "uint256"
						}
					],
					"name": "fovoriteNumbers",
					"outputs": [
						{
							"internalType": "uint256",
							"name": "",
							"type": "uint256"
						}
					],
					"stateMutability": "view",
					"type": "function"
				},
				{
					"inputs": [],
					"name": "getFavoriteNumber",
					"outputs": [
						{
							"internalType": "uint256",
							"name": "",
							"type": "uint256"
						}
					],
					"stateMutability": "view",
					"type": "function"
				},
				{
					"inputs": [],
					"name": "isActive",
					"outputs": [
						{
							"internalType": "bool",
							"name": "",
							"type": "bool"
						}
					],
					"stateMutability": "view",
					"type": "function"
				},
				{
					"inputs": [
						{
							"internalType": "uint256",
							"name": "_compareValue",
							"type": "uint256"
						}
					],
					"name": "isGreaterThan",
					"outputs": [
						{
							"internalType": "bool",
							"name": "",
							"type": "bool"
						}
					],
					"stateMutability": "view",
					"type": "function"
				},
				{
					"inputs": [
						{
							"internalType": "string",
							"name": "",
							"type": "string"
						}
					],
					"name": "nameToFavoriteNumber",
					"outputs": [
						{
							"internalType": "uint256",
							"name": "",
							"type": "uint256"
						}
					],
					"stateMutability": "view",
					"type": "function"
				},
				{
					"inputs": [
						{
							"internalType": "uint256",
							"name": "",
							"type": "uint256"
						}
					],
					"name": "people",
					"outputs": [
						{
							"internalType": "string",
							"name": "name",
							"type": "string"
						},
						{
							"internalType": "uint256",
							"name": "favoriteNumber",
							"type": "uint256"
						}
					],
					"stateMutability": "view",
					"type": "function"
				},
				{
					"inputs": [],
					"name": "state",
					"outputs": [
						{
							"internalType": "enum simplestorage.contractstate",
							"name": "",
							"type": "uint8"
						}
					],
					"stateMutability": "view",
					"type": "function"
				},
				{
					"inputs": [
						{
							"internalType": "uint256",
							"name": "_favoriteNumber",
							"type": "uint256"
						}
					],
					"name": "store",
					"outputs": [],
					"stateMutability": "nonpayable",
					"type": "function"
				},
				{
					"inputs": [
						{
							"internalType": "uint256",
							"name": "_favoriteNumber",
							"type": "uint256"
						}
					],
					"name": "storeNumber",
					"outputs": [],
					"stateMutability": "nonpayable",
					"type": "function"
				},
				{
					"inputs": [],
					"name": "sumToFavoriteNumber",
					"outputs": [
						{
							"internalType": "uint256",
							"name": "",
							"type": "uint256"
						}
					],
					"stateMutability": "view",
					"type": "function"
				},
				{
					"inputs": [],
					"name": "testExternalFuntion",
					"outputs": [
						{
							"internalType": "string",
							"name": "",
							"type": "string"
						}
					],
					"stateMutability": "view",
					"type": "function"
				},
				{
					"inputs": [
						{
							"internalType": "uint256",
							"name": "_newNumber",
							"type": "uint256"
						}
					],
					"name": "updateNumber",
					"outputs": [
						{
							"internalType": "uint256",
							"name": "",
							"type": "uint256"
						}
					],
					"stateMutability": "pure",
					"type": "function"
				}
			],
			"devdoc": {
				"kind": "dev",
				"methods": {},
				"version": 1
			},
			"evm": {
				"assembly": "    /* \"simplestorage.sol\":58:3933  contract simplestorage {... */\n  mstore(0x40, 0x80)\n  callvalue\n  dup1\n  iszero\n  tag_1\n  jumpi\n  0x00\n  dup1\n  revert\ntag_1:\n  pop\n  dataSize(sub_0)\n  dup1\n  dataOffset(sub_0)\n  0x00\n  codecopy\n  0x00\n  return\nstop\n\nsub_0: assembly {\n        /* \"simplestorage.sol\":58:3933  contract simplestorage {... */\n      mstore(0x40, 0x80)\n      callvalue\n      dup1\n      iszero\n      tag_1\n      jumpi\n      0x00\n      dup1\n      revert\n    tag_1:\n      pop\n      jumpi(tag_2, lt(calldatasize, 0x04))\n      shr(0xe0, calldataload(0x00))\n      dup1\n      0x712248d3\n      gt\n      tag_23\n      jumpi\n      dup1\n      0xa621d15e\n      gt\n      tag_24\n      jumpi\n      dup1\n      0xa621d15e\n      eq\n      tag_18\n      jumpi\n      dup1\n      0xb39e12b5\n      eq\n      tag_19\n      jumpi\n      dup1\n      0xb6339418\n      eq\n      tag_20\n      jumpi\n      dup1\n      0xc19d93fb\n      eq\n      tag_21\n      jumpi\n      dup1\n      0xcb6a33f8\n      eq\n      tag_22\n      jumpi\n      jump(tag_2)\n    tag_24:\n      dup1\n      0x712248d3\n      eq\n      tag_13\n      jumpi\n      dup1\n      0x8701f8ca\n      eq\n      tag_14\n      jumpi\n      dup1\n      0x87542eb3\n      eq\n      tag_15\n      jumpi\n      dup1\n      0x8bab8dd5\n      eq\n      tag_16\n      jumpi\n      dup1\n      0x9e7a13ad\n      eq\n      tag_17\n      jumpi\n      jump(tag_2)\n    tag_23:\n      dup1\n      0x3a32b549\n      gt\n      tag_25\n      jumpi\n      dup1\n      0x3a32b549\n      eq\n      tag_8\n      jumpi\n      dup1\n      0x43896a43\n      eq\n      tag_9\n      jumpi\n      dup1\n      0x471f7cdf\n      eq\n      tag_10\n      jumpi\n      dup1\n      0x6057361d\n      eq\n      tag_11\n      jumpi\n      dup1\n      0x6f760f41\n      eq\n      tag_12\n      jumpi\n      jump(tag_2)\n    tag_25:\n      dup1\n      0x0a8a3d74\n      eq\n      tag_3\n      jumpi\n      dup1\n      0x0cd2636e\n      eq\n      tag_4\n      jumpi\n      dup1\n      0x14286bd2\n      eq\n      tag_5\n      jumpi\n      dup1\n      0x1db05a88\n      eq\n      tag_6\n      jumpi\n      dup1\n      0x22f3e2d4\n      eq\n      tag_7\n      jumpi\n    tag_2:\n      0x00\n      dup1\n      revert\n        /* \"simplestorage.sol\":2701:2785  function deactivatecontract() public {... */\n    tag_3:\n      tag_26\n      tag_27\n      jump\t// in\n    tag_26:\n      stop\n        /* \"simplestorage.sol\":1473:1674  function sumToFavoriteNumber() public view returns (uint256) {... */\n    tag_4:\n      tag_28\n      tag_29\n      jump\t// in\n    tag_28:\n      mload(0x40)\n      tag_30\n      swap2\n      swap1\n      tag_31\n      jump\t// in\n    tag_30:\n      mload(0x40)\n      dup1\n      swap2\n      sub\n      swap1\n      return\n        /* \"simplestorage.sol\":289:321  uint256[] public fovoriteNumbers */\n    tag_5:\n      tag_32\n      0x04\n      dup1\n      calldatasize\n      sub\n      dup2\n      add\n      swap1\n      tag_33\n      swap2\n      swap1\n      tag_34\n      jump\t// in\n    tag_33:\n      tag_35\n      jump\t// in\n    tag_32:\n      mload(0x40)\n      tag_36\n      swap2\n      swap1\n      tag_31\n      jump\t// in\n    tag_36:\n      mload(0x40)\n      dup1\n      swap2\n      sub\n      swap1\n      return\n        /* \"simplestorage.sol\":3384:3598  function updateNumber(uint256 _newNumber) public pure  returns (uint256) {... */\n    tag_6:\n      tag_37\n      0x04\n      dup1\n      calldatasize\n      sub\n      dup2\n      add\n      swap1\n      tag_38\n      swap2\n      swap1\n      tag_34\n      jump\t// in\n    tag_38:\n      tag_39\n      jump\t// in\n    tag_37:\n      mload(0x40)\n      tag_40\n      swap2\n      swap1\n      tag_31\n      jump\t// in\n    tag_40:\n      mload(0x40)\n      dup1\n      swap2\n      sub\n      swap1\n      return\n        /* \"simplestorage.sol\":2791:2891  function isActive() public view returns (bool) {... */\n    tag_7:\n      tag_41\n      tag_42\n      jump\t// in\n    tag_41:\n      mload(0x40)\n      tag_43\n      swap2\n      swap1\n      tag_44\n      jump\t// in\n    tag_43:\n      mload(0x40)\n      dup1\n      swap2\n      sub\n      swap1\n      return\n        /* \"simplestorage.sol\":2117:2283  function externalFunction() external pure returns (string memory) {... */\n    tag_8:\n      tag_45\n      tag_46\n      jump\t// in\n    tag_45:\n      mload(0x40)\n      tag_47\n      swap2\n      swap1\n      tag_48\n      jump\t// in\n    tag_47:\n      mload(0x40)\n      dup1\n      swap2\n      sub\n      swap1\n      return\n        /* \"simplestorage.sol\":2289:2471  function testExternalFuntion() public view returns (string memory) {... */\n    tag_9:\n      tag_49\n      tag_50\n      jump\t// in\n    tag_49:\n      mload(0x40)\n      tag_51\n      swap2\n      swap1\n      tag_48\n      jump\t// in\n    tag_51:\n      mload(0x40)\n      dup1\n      swap2\n      sub\n      swap1\n      return\n        /* \"simplestorage.sol\":3144:3173  uint256 public favoriteNumber */\n    tag_10:\n      tag_52\n      tag_53\n      jump\t// in\n    tag_52:\n      mload(0x40)\n      tag_54\n      swap2\n      swap1\n      tag_31\n      jump\t// in\n    tag_54:\n      mload(0x40)\n      dup1\n      swap2\n      sub\n      swap1\n      return\n        /* \"simplestorage.sol\":3238:3334  function store(uint256 _favoriteNumber) public {... */\n    tag_11:\n      tag_55\n      0x04\n      dup1\n      calldatasize\n      sub\n      dup2\n      add\n      swap1\n      tag_56\n      swap2\n      swap1\n      tag_34\n      jump\t// in\n    tag_56:\n      tag_57\n      jump\t// in\n    tag_55:\n      stop\n        /* \"simplestorage.sol\":2477:2609  function addPerson(string memory _name, uint256 _favoriteNumber) public {... */\n    tag_12:\n      tag_58\n      0x04\n      dup1\n      calldatasize\n      sub\n      dup2\n      add\n      swap1\n      tag_59\n      swap2\n      swap1\n      tag_60\n      jump\t// in\n    tag_59:\n      tag_61\n      jump\t// in\n    tag_58:\n      stop\n        /* \"simplestorage.sol\":2958:3098  function addPersonstringname(string memory _name, uint256 _favoriteNumber) public {... */\n    tag_13:\n      tag_62\n      0x04\n      dup1\n      calldatasize\n      sub\n      dup2\n      add\n      swap1\n      tag_63\n      swap2\n      swap1\n      tag_60\n      jump\t// in\n    tag_63:\n      tag_64\n      jump\t// in\n    tag_62:\n      stop\n        /* \"simplestorage.sol\":1947:2111  function callInternalFunction() public pure returns (string memory) {... */\n    tag_14:\n      tag_65\n      tag_66\n      jump\t// in\n    tag_65:\n      mload(0x40)\n      tag_67\n      swap2\n      swap1\n      tag_48\n      jump\t// in\n    tag_67:\n      mload(0x40)\n      dup1\n      swap2\n      sub\n      swap1\n      return\n        /* \"simplestorage.sol\":2615:2695  function activatecontract() public {... */\n    tag_15:\n      tag_68\n      tag_69\n      jump\t// in\n    tag_68:\n      stop\n        /* \"simplestorage.sol\":2897:2951  mapping(string => uint256) public nameToFavoriteNumber */\n    tag_16:\n      tag_70\n      0x04\n      dup1\n      calldatasize\n      sub\n      dup2\n      add\n      swap1\n      tag_71\n      swap2\n      swap1\n      tag_72\n      jump\t// in\n    tag_71:\n      tag_73\n      jump\t// in\n    tag_70:\n      mload(0x40)\n      tag_74\n      swap2\n      swap1\n      tag_31\n      jump\t// in\n    tag_74:\n      mload(0x40)\n      dup1\n      swap2\n      sub\n      swap1\n      return\n        /* \"simplestorage.sol\":567:589  person[] public people */\n    tag_17:\n      tag_75\n      0x04\n      dup1\n      calldatasize\n      sub\n      dup2\n      add\n      swap1\n      tag_76\n      swap2\n      swap1\n      tag_34\n      jump\t// in\n    tag_76:\n      tag_77\n      jump\t// in\n    tag_75:\n      mload(0x40)\n      tag_78\n      swap3\n      swap2\n      swap1\n      tag_79\n      jump\t// in\n    tag_78:\n      mload(0x40)\n      dup1\n      swap2\n      sub\n      swap1\n      return\n        /* \"simplestorage.sol\":1160:1257  function getFavoriteNumber() public view returns (uint256) {... */\n    tag_18:\n      tag_80\n      tag_81\n      jump\t// in\n    tag_80:\n      mload(0x40)\n      tag_82\n      swap2\n      swap1\n      tag_31\n      jump\t// in\n    tag_82:\n      mload(0x40)\n      dup1\n      swap2\n      sub\n      swap1\n      return\n        /* \"simplestorage.sol\":3650:3926  function concatenateString(string calldata _inputString) public pure returns (string memory) {... */\n    tag_19:\n      tag_83\n      0x04\n      dup1\n      calldatasize\n      sub\n      dup2\n      add\n      swap1\n      tag_84\n      swap2\n      swap1\n      tag_85\n      jump\t// in\n    tag_84:\n      tag_86\n      jump\t// in\n    tag_83:\n      mload(0x40)\n      tag_87\n      swap2\n      swap1\n      tag_48\n      jump\t// in\n    tag_87:\n      mload(0x40)\n      dup1\n      swap2\n      sub\n      swap1\n      return\n        /* \"simplestorage.sol\":940:1154  function storeNumber(uint256 _favoriteNumber) public {... */\n    tag_20:\n      tag_88\n      0x04\n      dup1\n      calldatasize\n      sub\n      dup2\n      add\n      swap1\n      tag_89\n      swap2\n      swap1\n      tag_34\n      jump\t// in\n    tag_89:\n      tag_90\n      jump\t// in\n    tag_88:\n      stop\n        /* \"simplestorage.sol\":859:885  contractstate public state */\n    tag_21:\n      tag_91\n      tag_92\n      jump\t// in\n    tag_91:\n      mload(0x40)\n      tag_93\n      swap2\n      swap1\n      tag_94\n      jump\t// in\n    tag_93:\n      mload(0x40)\n      dup1\n      swap2\n      sub\n      swap1\n      return\n        /* \"simplestorage.sol\":1263:1467  function isGreaterThan(uint256 _compareValue) public view returns (bool) {... */\n    tag_22:\n      tag_95\n      0x04\n      dup1\n      calldatasize\n      sub\n      dup2\n      add\n      swap1\n      tag_96\n      swap2\n      swap1\n      tag_34\n      jump\t// in\n    tag_96:\n      tag_97\n      jump\t// in\n    tag_95:\n      mload(0x40)\n      tag_98\n      swap2\n      swap1\n      tag_44\n      jump\t// in\n    tag_98:\n      mload(0x40)\n      dup1\n      swap2\n      sub\n      swap1\n      return\n        /* \"simplestorage.sol\":2701:2785  function deactivatecontract() public {... */\n    tag_27:\n        /* \"simplestorage.sol\":2756:2778  contractstate.Inactive */\n      0x01\n        /* \"simplestorage.sol\":2748:2753  state */\n      0x03\n      0x00\n        /* \"simplestorage.sol\":2748:2778  state = contractstate.Inactive */\n      0x0100\n      exp\n      dup2\n      sload\n      dup2\n      0xff\n      mul\n      not\n      and\n      swap1\n      dup4\n      0x01\n      dup2\n      gt\n      iszero\n      tag_100\n      jumpi\n      tag_101\n      tag_102\n      jump\t// in\n    tag_101:\n    tag_100:\n      mul\n      or\n      swap1\n      sstore\n      pop\n        /* \"simplestorage.sol\":2701:2785  function deactivatecontract() public {... */\n      jump\t// out\n        /* \"simplestorage.sol\":1473:1674  function sumToFavoriteNumber() public view returns (uint256) {... */\n    tag_29:\n        /* \"simplestorage.sol\":1525:1532  uint256 */\n      0x00\n        /* \"simplestorage.sol\":1544:1555  uint256 sum */\n      dup1\n        /* \"simplestorage.sol\":1558:1559  0 */\n      0x00\n        /* \"simplestorage.sol\":1544:1559  uint256 sum = 0 */\n      swap1\n      pop\n        /* \"simplestorage.sol\":1574:1583  uint256 i */\n      0x00\n        /* \"simplestorage.sol\":1586:1587  1 */\n      0x01\n        /* \"simplestorage.sol\":1574:1587  uint256 i = 1 */\n      swap1\n      pop\n        /* \"simplestorage.sol\":1569:1648  for (uint256 i = 1; i <= favoriteNumber; i++) {... */\n    tag_104:\n        /* \"simplestorage.sol\":1594:1608  favoriteNumber */\n      sload(0x05)\n        /* \"simplestorage.sol\":1589:1590  i */\n      dup2\n        /* \"simplestorage.sol\":1589:1608  i <= favoriteNumber */\n      gt\n        /* \"simplestorage.sol\":1569:1648  for (uint256 i = 1; i <= favoriteNumber; i++) {... */\n      tag_105\n      jumpi\n        /* \"simplestorage.sol\":1636:1637  i */\n      dup1\n        /* \"simplestorage.sol\":1629:1637  sum += i */\n      dup3\n      tag_107\n      swap2\n      swap1\n      tag_108\n      jump\t// in\n    tag_107:\n      swap2\n      pop\n        /* \"simplestorage.sol\":1610:1613  i++ */\n      dup1\n      dup1\n      tag_109\n      swap1\n      tag_110\n      jump\t// in\n    tag_109:\n      swap2\n      pop\n      pop\n        /* \"simplestorage.sol\":1569:1648  for (uint256 i = 1; i <= favoriteNumber; i++) {... */\n      jump(tag_104)\n    tag_105:\n      pop\n        /* \"simplestorage.sol\":1664:1667  sum */\n      dup1\n        /* \"simplestorage.sol\":1657:1667  return sum */\n      swap2\n      pop\n      pop\n        /* \"simplestorage.sol\":1473:1674  function sumToFavoriteNumber() public view returns (uint256) {... */\n      swap1\n      jump\t// out\n        /* \"simplestorage.sol\":289:321  uint256[] public fovoriteNumbers */\n    tag_35:\n      0x01\n      dup2\n      dup2\n      sload\n      dup2\n      lt\n      tag_111\n      jumpi\n      0x00\n      dup1\n      revert\n    tag_111:\n      swap1\n      0x00\n      mstore\n      keccak256(0x00, 0x20)\n      add\n      0x00\n      swap2\n      pop\n      swap1\n      pop\n      sload\n      dup2\n      jump\t// out\n        /* \"simplestorage.sol\":3384:3598  function updateNumber(uint256 _newNumber) public pure  returns (uint256) {... */\n    tag_39:\n        /* \"simplestorage.sol\":3448:3455  uint256 */\n      0x00\n        /* \"simplestorage.sol\":3529:3547  uint256 tempNumber */\n      dup1\n        /* \"simplestorage.sol\":3563:3564  5 */\n      0x05\n        /* \"simplestorage.sol\":3550:3560  _newNumber */\n      dup4\n        /* \"simplestorage.sol\":3550:3564  _newNumber + 5 */\n      tag_114\n      swap2\n      swap1\n      tag_108\n      jump\t// in\n    tag_114:\n        /* \"simplestorage.sol\":3529:3564  uint256 tempNumber = _newNumber + 5 */\n      swap1\n      pop\n        /* \"simplestorage.sol\":3581:3591  tempNumber */\n      dup1\n        /* \"simplestorage.sol\":3574:3591  return tempNumber */\n      swap2\n      pop\n      pop\n        /* \"simplestorage.sol\":3384:3598  function updateNumber(uint256 _newNumber) public pure  returns (uint256) {... */\n      swap2\n      swap1\n      pop\n      jump\t// out\n        /* \"simplestorage.sol\":2791:2891  function isActive() public view returns (bool) {... */\n    tag_42:\n        /* \"simplestorage.sol\":2832:2836  bool */\n      0x00\n        /* \"simplestorage.sol\":2864:2884  contractstate.Active */\n      dup1\n        /* \"simplestorage.sol\":2855:2884  state == contractstate.Active */\n      0x01\n      dup2\n      gt\n      iszero\n      tag_116\n      jumpi\n      tag_117\n      tag_102\n      jump\t// in\n    tag_117:\n    tag_116:\n        /* \"simplestorage.sol\":2855:2860  state */\n      0x03\n      0x00\n      swap1\n      sload\n      swap1\n      0x0100\n      exp\n      swap1\n      div\n      0xff\n      and\n        /* \"simplestorage.sol\":2855:2884  state == contractstate.Active */\n      0x01\n      dup2\n      gt\n      iszero\n      tag_118\n      jumpi\n      tag_119\n      tag_102\n      jump\t// in\n    tag_119:\n    tag_118:\n      eq\n        /* \"simplestorage.sol\":2848:2884  return state == contractstate.Active */\n      swap1\n      pop\n        /* \"simplestorage.sol\":2791:2891  function isActive() public view returns (bool) {... */\n      swap1\n      jump\t// out\n        /* \"simplestorage.sol\":2117:2283  function externalFunction() external pure returns (string memory) {... */\n    tag_46:\n        /* \"simplestorage.sol\":2168:2181  string memory */\n      0x60\n        /* \"simplestorage.sol\":2193:2230  return \"This is an external function\" */\n      mload(0x40)\n      dup1\n      0x40\n      add\n      0x40\n      mstore\n      dup1\n      0x1c\n      dup2\n      mstore\n      0x20\n      add\n      0x5468697320697320616e2065787465726e616c2066756e6374696f6e00000000\n      dup2\n      mstore\n      pop\n      swap1\n      pop\n        /* \"simplestorage.sol\":2117:2283  function externalFunction() external pure returns (string memory) {... */\n      swap1\n      jump\t// out\n        /* \"simplestorage.sol\":2289:2471  function testExternalFuntion() public view returns (string memory) {... */\n    tag_50:\n        /* \"simplestorage.sol\":2341:2354  string memory */\n      0x60\n        /* \"simplestorage.sol\":2373:2377  this */\n      address\n        /* \"simplestorage.sol\":2373:2394  this.externalFunction */\n      0xffffffffffffffffffffffffffffffffffffffff\n      and\n      0x3a32b549\n        /* \"simplestorage.sol\":2373:2396  this.externalFunction() */\n      mload(0x40)\n      dup2\n      0xffffffff\n      and\n      0xe0\n      shl\n      dup2\n      mstore\n      0x04\n      add\n      0x00\n      mload(0x40)\n      dup1\n      dup4\n      sub\n      dup2\n      dup7\n      gas\n      staticcall\n      iszero\n      dup1\n      iszero\n      tag_123\n      jumpi\n      returndatasize\n      0x00\n      dup1\n      returndatacopy\n      revert(0x00, returndatasize)\n    tag_123:\n      pop\n      pop\n      pop\n      pop\n      mload(0x40)\n      returndatasize\n      0x00\n      dup3\n      returndatacopy\n      returndatasize\n      not(0x1f)\n      0x1f\n      dup3\n      add\n      and\n      dup3\n      add\n      dup1\n      0x40\n      mstore\n      pop\n      dup2\n      add\n      swap1\n      tag_124\n      swap2\n      swap1\n      tag_125\n      jump\t// in\n    tag_124:\n        /* \"simplestorage.sol\":2366:2396  return this.externalFunction() */\n      swap1\n      pop\n        /* \"simplestorage.sol\":2289:2471  function testExternalFuntion() public view returns (string memory) {... */\n      swap1\n      jump\t// out\n        /* \"simplestorage.sol\":3144:3173  uint256 public favoriteNumber */\n    tag_53:\n      sload(0x05)\n      dup2\n      jump\t// out\n        /* \"simplestorage.sol\":3238:3334  function store(uint256 _favoriteNumber) public {... */\n    tag_57:\n        /* \"simplestorage.sol\":3312:3327  _favoriteNumber */\n      dup1\n        /* \"simplestorage.sol\":3295:3309  favoriteNumber */\n      0x05\n        /* \"simplestorage.sol\":3295:3327  favoriteNumber = _favoriteNumber */\n      dup2\n      swap1\n      sstore\n      pop\n        /* \"simplestorage.sol\":3238:3334  function store(uint256 _favoriteNumber) public {... */\n      pop\n      jump\t// out\n        /* \"simplestorage.sol\":2477:2609  function addPerson(string memory _name, uint256 _favoriteNumber) public {... */\n    tag_61:\n        /* \"simplestorage.sol\":2559:2565  people */\n      0x02\n        /* \"simplestorage.sol\":2571:2601  person(_name, _favoriteNumber) */\n      mload(0x40)\n      dup1\n      0x40\n      add\n      0x40\n      mstore\n      dup1\n        /* \"simplestorage.sol\":2578:2583  _name */\n      dup5\n        /* \"simplestorage.sol\":2571:2601  person(_name, _favoriteNumber) */\n      dup2\n      mstore\n      0x20\n      add\n        /* \"simplestorage.sol\":2585:2600  _favoriteNumber */\n      dup4\n        /* \"simplestorage.sol\":2571:2601  person(_name, _favoriteNumber) */\n      dup2\n      mstore\n      pop\n        /* \"simplestorage.sol\":2559:2602  people.push(person(_name, _favoriteNumber)) */\n      swap1\n      dup1\n      0x01\n      dup2\n      sload\n      add\n      dup1\n      dup3\n      sstore\n      dup1\n      swap2\n      pop\n      pop\n      0x01\n      swap1\n      sub\n      swap1\n      0x00\n      mstore\n      keccak256(0x00, 0x20)\n      swap1\n      0x02\n      mul\n      add\n      0x00\n      swap1\n      swap2\n      swap1\n      swap2\n      swap1\n      swap2\n      pop\n      0x00\n      dup3\n      add\n      mload\n      dup2\n      0x00\n      add\n      swap1\n      dup2\n      tag_129\n      swap2\n      swap1\n      tag_130\n      jump\t// in\n    tag_129:\n      pop\n      0x20\n      dup3\n      add\n      mload\n      dup2\n      0x01\n      add\n      sstore\n      pop\n      pop\n        /* \"simplestorage.sol\":2477:2609  function addPerson(string memory _name, uint256 _favoriteNumber) public {... */\n      pop\n      pop\n      jump\t// out\n        /* \"simplestorage.sol\":2958:3098  function addPersonstringname(string memory _name, uint256 _favoriteNumber) public {... */\n    tag_64:\n        /* \"simplestorage.sol\":3076:3091  _favoriteNumber */\n      dup1\n        /* \"simplestorage.sol\":3046:3066  nameToFavoriteNumber */\n      0x04\n        /* \"simplestorage.sol\":3067:3072  _name */\n      dup4\n        /* \"simplestorage.sol\":3046:3073  nameToFavoriteNumber[_name] */\n      mload(0x40)\n      tag_132\n      swap2\n      swap1\n      tag_133\n      jump\t// in\n    tag_132:\n      swap1\n      dup2\n      mstore\n      0x20\n      add\n      mload(0x40)\n      dup1\n      swap2\n      sub\n      swap1\n      keccak256\n        /* \"simplestorage.sol\":3046:3091  nameToFavoriteNumber[_name] = _favoriteNumber */\n      dup2\n      swap1\n      sstore\n      pop\n        /* \"simplestorage.sol\":2958:3098  function addPersonstringname(string memory _name, uint256 _favoriteNumber) public {... */\n      pop\n      pop\n      jump\t// out\n        /* \"simplestorage.sol\":1947:2111  function callInternalFunction() public pure returns (string memory) {... */\n    tag_66:\n        /* \"simplestorage.sol\":2000:2013  string memory */\n      0x60\n        /* \"simplestorage.sol\":2032:2050  internalFunction() */\n      tag_135\n        /* \"simplestorage.sol\":2032:2048  internalFunction */\n      tag_136\n        /* \"simplestorage.sol\":2032:2050  internalFunction() */\n      jump\t// in\n    tag_135:\n        /* \"simplestorage.sol\":2025:2050  return internalFunction() */\n      swap1\n      pop\n        /* \"simplestorage.sol\":1947:2111  function callInternalFunction() public pure returns (string memory) {... */\n      swap1\n      jump\t// out\n        /* \"simplestorage.sol\":2615:2695  function activatecontract() public {... */\n    tag_69:\n        /* \"simplestorage.sol\":2668:2688  contractstate.Active */\n      0x00\n        /* \"simplestorage.sol\":2660:2665  state */\n      0x03\n      0x00\n        /* \"simplestorage.sol\":2660:2688  state = contractstate.Active */\n      0x0100\n      exp\n      dup2\n      sload\n      dup2\n      0xff\n      mul\n      not\n      and\n      swap1\n      dup4\n      0x01\n      dup2\n      gt\n      iszero\n      tag_138\n      jumpi\n      tag_139\n      tag_102\n      jump\t// in\n    tag_139:\n    tag_138:\n      mul\n      or\n      swap1\n      sstore\n      pop\n        /* \"simplestorage.sol\":2615:2695  function activatecontract() public {... */\n      jump\t// out\n        /* \"simplestorage.sol\":2897:2951  mapping(string => uint256) public nameToFavoriteNumber */\n    tag_73:\n      0x04\n      dup2\n      dup1\n      mload\n      0x20\n      dup2\n      add\n      dup3\n      add\n      dup1\n      mload\n      dup5\n      dup3\n      mstore\n      0x20\n      dup4\n      add\n      0x20\n      dup6\n      add\n      keccak256\n      dup2\n      dup4\n      mstore\n      dup1\n      swap6\n      pop\n      pop\n      pop\n      pop\n      pop\n      pop\n      0x00\n      swap2\n      pop\n      swap1\n      pop\n      sload\n      dup2\n      jump\t// out\n        /* \"simplestorage.sol\":567:589  person[] public people */\n    tag_77:\n      0x02\n      dup2\n      dup2\n      sload\n      dup2\n      lt\n      tag_140\n      jumpi\n      0x00\n      dup1\n      revert\n    tag_140:\n      swap1\n      0x00\n      mstore\n      keccak256(0x00, 0x20)\n      swap1\n      0x02\n      mul\n      add\n      0x00\n      swap2\n      pop\n      swap1\n      pop\n      dup1\n      0x00\n      add\n      dup1\n      sload\n      tag_142\n      swap1\n      tag_143\n      jump\t// in\n    tag_142:\n      dup1\n      0x1f\n      add\n      0x20\n      dup1\n      swap2\n      div\n      mul\n      0x20\n      add\n      mload(0x40)\n      swap1\n      dup2\n      add\n      0x40\n      mstore\n      dup1\n      swap3\n      swap2\n      swap1\n      dup2\n      dup2\n      mstore\n      0x20\n      add\n      dup3\n      dup1\n      sload\n      tag_144\n      swap1\n      tag_143\n      jump\t// in\n    tag_144:\n      dup1\n      iszero\n      tag_145\n      jumpi\n      dup1\n      0x1f\n      lt\n      tag_146\n      jumpi\n      0x0100\n      dup1\n      dup4\n      sload\n      div\n      mul\n      dup4\n      mstore\n      swap2\n      0x20\n      add\n      swap2\n      jump(tag_145)\n    tag_146:\n      dup3\n      add\n      swap2\n      swap1\n      0x00\n      mstore\n      keccak256(0x00, 0x20)\n      swap1\n    tag_147:\n      dup2\n      sload\n      dup2\n      mstore\n      swap1\n      0x01\n      add\n      swap1\n      0x20\n      add\n      dup1\n      dup4\n      gt\n      tag_147\n      jumpi\n      dup3\n      swap1\n      sub\n      0x1f\n      and\n      dup3\n      add\n      swap2\n    tag_145:\n      pop\n      pop\n      pop\n      pop\n      pop\n      swap1\n      dup1\n      0x01\n      add\n      sload\n      swap1\n      pop\n      dup3\n      jump\t// out\n        /* \"simplestorage.sol\":1160:1257  function getFavoriteNumber() public view returns (uint256) {... */\n    tag_81:\n        /* \"simplestorage.sol\":1210:1217  uint256 */\n      0x00\n        /* \"simplestorage.sol\":1236:1250  favoriteNumber */\n      sload(0x05)\n        /* \"simplestorage.sol\":1229:1250  return favoriteNumber */\n      swap1\n      pop\n        /* \"simplestorage.sol\":1160:1257  function getFavoriteNumber() public view returns (uint256) {... */\n      swap1\n      jump\t// out\n        /* \"simplestorage.sol\":3650:3926  function concatenateString(string calldata _inputString) public pure returns (string memory) {... */\n    tag_86:\n        /* \"simplestorage.sol\":3728:3741  string memory */\n      0x60\n        /* \"simplestorage.sol\":3813:3836  string memory newString */\n      0x00\n        /* \"simplestorage.sol\":3863:3875  _inputString */\n      dup4\n      dup4\n        /* \"simplestorage.sol\":3846:3892  abi.encodePacked(_inputString, \" is awesome!\") */\n      add(0x20, mload(0x40))\n      tag_150\n      swap3\n      swap2\n      swap1\n      tag_151\n      jump\t// in\n    tag_150:\n      mload(0x40)\n      0x20\n      dup2\n      dup4\n      sub\n      sub\n      dup2\n      mstore\n      swap1\n      0x40\n      mstore\n        /* \"simplestorage.sol\":3813:3893  string memory newString = string(abi.encodePacked(_inputString, \" is awesome!\")) */\n      swap1\n      pop\n        /* \"simplestorage.sol\":3910:3919  newString */\n      dup1\n        /* \"simplestorage.sol\":3903:3919  return newString */\n      swap2\n      pop\n      pop\n        /* \"simplestorage.sol\":3650:3926  function concatenateString(string calldata _inputString) public pure returns (string memory) {... */\n      swap3\n      swap2\n      pop\n      pop\n      jump\t// out\n        /* \"simplestorage.sol\":940:1154  function storeNumber(uint256 _favoriteNumber) public {... */\n    tag_90:\n        /* \"simplestorage.sol\":1020:1035  _favoriteNumber */\n      dup1\n        /* \"simplestorage.sol\":1003:1017  favoriteNumber */\n      0x05\n        /* \"simplestorage.sol\":1003:1035  favoriteNumber = _favoriteNumber */\n      dup2\n      swap1\n      sstore\n      pop\n        /* \"simplestorage.sol\":1105:1147  NumberUpdated(_favoriteNumber, msg.sender) */\n      0xe5f28171f43fc54876f02589c23cc70d19e06f868cc3811c456e8c61c296a27e\n        /* \"simplestorage.sol\":1119:1134  _favoriteNumber */\n      dup2\n        /* \"simplestorage.sol\":1136:1146  msg.sender */\n      caller\n        /* \"simplestorage.sol\":1105:1147  NumberUpdated(_favoriteNumber, msg.sender) */\n      mload(0x40)\n      tag_153\n      swap3\n      swap2\n      swap1\n      tag_154\n      jump\t// in\n    tag_153:\n      mload(0x40)\n      dup1\n      swap2\n      sub\n      swap1\n      log1\n        /* \"simplestorage.sol\":940:1154  function storeNumber(uint256 _favoriteNumber) public {... */\n      pop\n      jump\t// out\n        /* \"simplestorage.sol\":859:885  contractstate public state */\n    tag_92:\n      0x03\n      0x00\n      swap1\n      sload\n      swap1\n      0x0100\n      exp\n      swap1\n      div\n      0xff\n      and\n      dup2\n      jump\t// out\n        /* \"simplestorage.sol\":1263:1467  function isGreaterThan(uint256 _compareValue) public view returns (bool) {... */\n    tag_97:\n        /* \"simplestorage.sol\":1330:1334  bool */\n      0x00\n        /* \"simplestorage.sol\":1367:1380  _compareValue */\n      dup2\n        /* \"simplestorage.sol\":1350:1364  favoriteNumber */\n      sload(0x05)\n        /* \"simplestorage.sol\":1350:1380  favoriteNumber > _compareValue */\n      gt\n        /* \"simplestorage.sol\":1346:1461  if (favoriteNumber > _compareValue) {... */\n      iszero\n      tag_156\n      jumpi\n        /* \"simplestorage.sol\":1403:1407  true */\n      0x01\n        /* \"simplestorage.sol\":1396:1407  return true */\n      swap1\n      pop\n      jump(tag_155)\n        /* \"simplestorage.sol\":1346:1461  if (favoriteNumber > _compareValue) {... */\n    tag_156:\n        /* \"simplestorage.sol\":1445:1450  false */\n      0x00\n        /* \"simplestorage.sol\":1438:1450  return false */\n      swap1\n      pop\n        /* \"simplestorage.sol\":1263:1467  function isGreaterThan(uint256 _compareValue) public view returns (bool) {... */\n    tag_155:\n      swap2\n      swap1\n      pop\n      jump\t// out\n        /* \"simplestorage.sol\":1680:1870  function internalFunction() internal pure returns (string memory) {... */\n    tag_136:\n        /* \"simplestorage.sol\":1731:1744  string memory */\n      0x60\n        /* \"simplestorage.sol\":1756:1793  return \"This is an internal function\" */\n      mload(0x40)\n      dup1\n      0x40\n      add\n      0x40\n      mstore\n      dup1\n      0x1c\n      dup2\n      mstore\n      0x20\n      add\n      0x5468697320697320616e20696e7465726e616c2066756e6374696f6e00000000\n      dup2\n      mstore\n      pop\n      swap1\n      pop\n        /* \"simplestorage.sol\":1680:1870  function internalFunction() internal pure returns (string memory) {... */\n      swap1\n      jump\t// out\n        /* \"#utility.yul\":7:84   */\n    tag_159:\n        /* \"#utility.yul\":44:51   */\n      0x00\n        /* \"#utility.yul\":73:78   */\n      dup2\n        /* \"#utility.yul\":62:78   */\n      swap1\n      pop\n        /* \"#utility.yul\":7:84   */\n      swap2\n      swap1\n      pop\n      jump\t// out\n        /* \"#utility.yul\":90:208   */\n    tag_160:\n        /* \"#utility.yul\":177:201   */\n      tag_219\n        /* \"#utility.yul\":195:200   */\n      dup2\n        /* \"#utility.yul\":177:201   */\n      tag_159\n      jump\t// in\n    tag_219:\n        /* \"#utility.yul\":172:175   */\n      dup3\n        /* \"#utility.yul\":165:202   */\n      mstore\n        /* \"#utility.yul\":90:208   */\n      pop\n      pop\n      jump\t// out\n        /* \"#utility.yul\":214:436   */\n    tag_31:\n        /* \"#utility.yul\":307:311   */\n      0x00\n        /* \"#utility.yul\":345:347   */\n      0x20\n        /* \"#utility.yul\":334:343   */\n      dup3\n        /* \"#utility.yul\":330:348   */\n      add\n        /* \"#utility.yul\":322:348   */\n      swap1\n      pop\n        /* \"#utility.yul\":358:429   */\n      tag_221\n        /* \"#utility.yul\":426:427   */\n      0x00\n        /* \"#utility.yul\":415:424   */\n      dup4\n        /* \"#utility.yul\":411:428   */\n      add\n        /* \"#utility.yul\":402:408   */\n      dup5\n        /* \"#utility.yul\":358:429   */\n      tag_160\n      jump\t// in\n    tag_221:\n        /* \"#utility.yul\":214:436   */\n      swap3\n      swap2\n      pop\n      pop\n      jump\t// out\n        /* \"#utility.yul\":442:517   */\n    tag_161:\n        /* \"#utility.yul\":475:481   */\n      0x00\n        /* \"#utility.yul\":508:510   */\n      0x40\n        /* \"#utility.yul\":502:511   */\n      mload\n        /* \"#utility.yul\":492:511   */\n      swap1\n      pop\n        /* \"#utility.yul\":442:517   */\n      swap1\n      jump\t// out\n        /* \"#utility.yul\":523:640   */\n    tag_162:\n        /* \"#utility.yul\":632:633   */\n      0x00\n        /* \"#utility.yul\":629:630   */\n      dup1\n        /* \"#utility.yul\":622:634   */\n      revert\n        /* \"#utility.yul\":646:763   */\n    tag_163:\n        /* \"#utility.yul\":755:756   */\n      0x00\n        /* \"#utility.yul\":752:753   */\n      dup1\n        /* \"#utility.yul\":745:757   */\n      revert\n        /* \"#utility.yul\":769:891   */\n    tag_164:\n        /* \"#utility.yul\":842:866   */\n      tag_226\n        /* \"#utility.yul\":860:865   */\n      dup2\n        /* \"#utility.yul\":842:866   */\n      tag_159\n      jump\t// in\n    tag_226:\n        /* \"#utility.yul\":835:840   */\n      dup2\n        /* \"#utility.yul\":832:867   */\n      eq\n        /* \"#utility.yul\":822:885   */\n      tag_227\n      jumpi\n        /* \"#utility.yul\":881:882   */\n      0x00\n        /* \"#utility.yul\":878:879   */\n      dup1\n        /* \"#utility.yul\":871:883   */\n      revert\n        /* \"#utility.yul\":822:885   */\n    tag_227:\n        /* \"#utility.yul\":769:891   */\n      pop\n      jump\t// out\n        /* \"#utility.yul\":897:1036   */\n    tag_165:\n        /* \"#utility.yul\":943:948   */\n      0x00\n        /* \"#utility.yul\":981:987   */\n      dup2\n        /* \"#utility.yul\":968:988   */\n      calldataload\n        /* \"#utility.yul\":959:988   */\n      swap1\n      pop\n        /* \"#utility.yul\":997:1030   */\n      tag_229\n        /* \"#utility.yul\":1024:1029   */\n      dup2\n        /* \"#utility.yul\":997:1030   */\n      tag_164\n      jump\t// in\n    tag_229:\n        /* \"#utility.yul\":897:1036   */\n      swap3\n      swap2\n      pop\n      pop\n      jump\t// out\n        /* \"#utility.yul\":1042:1371   */\n    tag_34:\n        /* \"#utility.yul\":1101:1107   */\n      0x00\n        /* \"#utility.yul\":1150:1152   */\n      0x20\n        /* \"#utility.yul\":1138:1147   */\n      dup3\n        /* \"#utility.yul\":1129:1136   */\n      dup5\n        /* \"#utility.yul\":1125:1148   */\n      sub\n        /* \"#utility.yul\":1121:1153   */\n      slt\n        /* \"#utility.yul\":1118:1237   */\n      iszero\n      tag_231\n      jumpi\n        /* \"#utility.yul\":1156:1235   */\n      tag_232\n      tag_162\n      jump\t// in\n    tag_232:\n        /* \"#utility.yul\":1118:1237   */\n    tag_231:\n        /* \"#utility.yul\":1276:1277   */\n      0x00\n        /* \"#utility.yul\":1301:1354   */\n      tag_233\n        /* \"#utility.yul\":1346:1353   */\n      dup5\n        /* \"#utility.yul\":1337:1343   */\n      dup3\n        /* \"#utility.yul\":1326:1335   */\n      dup6\n        /* \"#utility.yul\":1322:1344   */\n      add\n        /* \"#utility.yul\":1301:1354   */\n      tag_165\n      jump\t// in\n    tag_233:\n        /* \"#utility.yul\":1291:1354   */\n      swap2\n      pop\n        /* \"#utility.yul\":1247:1364   */\n      pop\n        /* \"#utility.yul\":1042:1371   */\n      swap3\n      swap2\n      pop\n      pop\n      jump\t// out\n        /* \"#utility.yul\":1377:1467   */\n    tag_166:\n        /* \"#utility.yul\":1411:1418   */\n      0x00\n        /* \"#utility.yul\":1454:1459   */\n      dup2\n        /* \"#utility.yul\":1447:1460   */\n      iszero\n        /* \"#utility.yul\":1440:1461   */\n      iszero\n        /* \"#utility.yul\":1429:1461   */\n      swap1\n      pop\n        /* \"#utility.yul\":1377:1467   */\n      swap2\n      swap1\n      pop\n      jump\t// out\n        /* \"#utility.yul\":1473:1582   */\n    tag_167:\n        /* \"#utility.yul\":1554:1575   */\n      tag_236\n        /* \"#utility.yul\":1569:1574   */\n      dup2\n        /* \"#utility.yul\":1554:1575   */\n      tag_166\n      jump\t// in\n    tag_236:\n        /* \"#utility.yul\":1549:1552   */\n      dup3\n        /* \"#utility.yul\":1542:1576   */\n      mstore\n        /* \"#utility.yul\":1473:1582   */\n      pop\n      pop\n      jump\t// out\n        /* \"#utility.yul\":1588:1798   */\n    tag_44:\n        /* \"#utility.yul\":1675:1679   */\n      0x00\n        /* \"#utility.yul\":1713:1715   */\n      0x20\n        /* \"#utility.yul\":1702:1711   */\n      dup3\n        /* \"#utility.yul\":1698:1716   */\n      add\n        /* \"#utility.yul\":1690:1716   */\n      swap1\n      pop\n        /* \"#utility.yul\":1726:1791   */\n      tag_238\n        /* \"#utility.yul\":1788:1789   */\n      0x00\n        /* \"#utility.yul\":1777:1786   */\n      dup4\n        /* \"#utility.yul\":1773:1790   */\n      add\n        /* \"#utility.yul\":1764:1770   */\n      dup5\n        /* \"#utility.yul\":1726:1791   */\n      tag_167\n      jump\t// in\n    tag_238:\n        /* \"#utility.yul\":1588:1798   */\n      swap3\n      swap2\n      pop\n      pop\n      jump\t// out\n        /* \"#utility.yul\":1804:1903   */\n    tag_168:\n        /* \"#utility.yul\":1856:1862   */\n      0x00\n        /* \"#utility.yul\":1890:1895   */\n      dup2\n        /* \"#utility.yul\":1884:1896   */\n      mload\n        /* \"#utility.yul\":1874:1896   */\n      swap1\n      pop\n        /* \"#utility.yul\":1804:1903   */\n      swap2\n      swap1\n      pop\n      jump\t// out\n        /* \"#utility.yul\":1909:2078   */\n    tag_169:\n        /* \"#utility.yul\":1993:2004   */\n      0x00\n        /* \"#utility.yul\":2027:2033   */\n      dup3\n        /* \"#utility.yul\":2022:2025   */\n      dup3\n        /* \"#utility.yul\":2015:2034   */\n      mstore\n        /* \"#utility.yul\":2067:2071   */\n      0x20\n        /* \"#utility.yul\":2062:2065   */\n      dup3\n        /* \"#utility.yul\":2058:2072   */\n      add\n        /* \"#utility.yul\":2043:2072   */\n      swap1\n      pop\n        /* \"#utility.yul\":1909:2078   */\n      swap3\n      swap2\n      pop\n      pop\n      jump\t// out\n        /* \"#utility.yul\":2084:2223   */\n    tag_170:\n        /* \"#utility.yul\":2173:2179   */\n      dup3\n        /* \"#utility.yul\":2168:2171   */\n      dup2\n        /* \"#utility.yul\":2163:2166   */\n      dup4\n        /* \"#utility.yul\":2157:2180   */\n      mcopy\n        /* \"#utility.yul\":2214:2215   */\n      0x00\n        /* \"#utility.yul\":2205:2211   */\n      dup4\n        /* \"#utility.yul\":2200:2203   */\n      dup4\n        /* \"#utility.yul\":2196:2212   */\n      add\n        /* \"#utility.yul\":2189:2216   */\n      mstore\n        /* \"#utility.yul\":2084:2223   */\n      pop\n      pop\n      pop\n      jump\t// out\n        /* \"#utility.yul\":2229:2331   */\n    tag_171:\n        /* \"#utility.yul\":2270:2276   */\n      0x00\n        /* \"#utility.yul\":2321:2323   */\n      0x1f\n        /* \"#utility.yul\":2317:2324   */\n      not\n        /* \"#utility.yul\":2312:2314   */\n      0x1f\n        /* \"#utility.yul\":2305:2310   */\n      dup4\n        /* \"#utility.yul\":2301:2315   */\n      add\n        /* \"#utility.yul\":2297:2325   */\n      and\n        /* \"#utility.yul\":2287:2325   */\n      swap1\n      pop\n        /* \"#utility.yul\":2229:2331   */\n      swap2\n      swap1\n      pop\n      jump\t// out\n        /* \"#utility.yul\":2337:2714   */\n    tag_172:\n        /* \"#utility.yul\":2425:2428   */\n      0x00\n        /* \"#utility.yul\":2453:2492   */\n      tag_244\n        /* \"#utility.yul\":2486:2491   */\n      dup3\n        /* \"#utility.yul\":2453:2492   */\n      tag_168\n      jump\t// in\n    tag_244:\n        /* \"#utility.yul\":2508:2579   */\n      tag_245\n        /* \"#utility.yul\":2572:2578   */\n      dup2\n        /* \"#utility.yul\":2567:2570   */\n      dup6\n        /* \"#utility.yul\":2508:2579   */\n      tag_169\n      jump\t// in\n    tag_245:\n        /* \"#utility.yul\":2501:2579   */\n      swap4\n      pop\n        /* \"#utility.yul\":2588:2653   */\n      tag_246\n        /* \"#utility.yul\":2646:2652   */\n      dup2\n        /* \"#utility.yul\":2641:2644   */\n      dup6\n        /* \"#utility.yul\":2634:2638   */\n      0x20\n        /* \"#utility.yul\":2627:2632   */\n      dup7\n        /* \"#utility.yul\":2623:2639   */\n      add\n        /* \"#utility.yul\":2588:2653   */\n      tag_170\n      jump\t// in\n    tag_246:\n        /* \"#utility.yul\":2678:2707   */\n      tag_247\n        /* \"#utility.yul\":2700:2706   */\n      dup2\n        /* \"#utility.yul\":2678:2707   */\n      tag_171\n      jump\t// in\n    tag_247:\n        /* \"#utility.yul\":2673:2676   */\n      dup5\n        /* \"#utility.yul\":2669:2708   */\n      add\n        /* \"#utility.yul\":2662:2708   */\n      swap2\n      pop\n        /* \"#utility.yul\":2429:2714   */\n      pop\n        /* \"#utility.yul\":2337:2714   */\n      swap3\n      swap2\n      pop\n      pop\n      jump\t// out\n        /* \"#utility.yul\":2720:3033   */\n    tag_48:\n        /* \"#utility.yul\":2833:2837   */\n      0x00\n        /* \"#utility.yul\":2871:2873   */\n      0x20\n        /* \"#utility.yul\":2860:2869   */\n      dup3\n        /* \"#utility.yul\":2856:2874   */\n      add\n        /* \"#utility.yul\":2848:2874   */\n      swap1\n      pop\n        /* \"#utility.yul\":2920:2929   */\n      dup2\n        /* \"#utility.yul\":2914:2918   */\n      dup2\n        /* \"#utility.yul\":2910:2930   */\n      sub\n        /* \"#utility.yul\":2906:2907   */\n      0x00\n        /* \"#utility.yul\":2895:2904   */\n      dup4\n        /* \"#utility.yul\":2891:2908   */\n      add\n        /* \"#utility.yul\":2884:2931   */\n      mstore\n        /* \"#utility.yul\":2948:3026   */\n      tag_249\n        /* \"#utility.yul\":3021:3025   */\n      dup2\n        /* \"#utility.yul\":3012:3018   */\n      dup5\n        /* \"#utility.yul\":2948:3026   */\n      tag_172\n      jump\t// in\n    tag_249:\n        /* \"#utility.yul\":2940:3026   */\n      swap1\n      pop\n        /* \"#utility.yul\":2720:3033   */\n      swap3\n      swap2\n      pop\n      pop\n      jump\t// out\n        /* \"#utility.yul\":3039:3156   */\n    tag_173:\n        /* \"#utility.yul\":3148:3149   */\n      0x00\n        /* \"#utility.yul\":3145:3146   */\n      dup1\n        /* \"#utility.yul\":3138:3150   */\n      revert\n        /* \"#utility.yul\":3162:3279   */\n    tag_174:\n        /* \"#utility.yul\":3271:3272   */\n      0x00\n        /* \"#utility.yul\":3268:3269   */\n      dup1\n        /* \"#utility.yul\":3261:3273   */\n      revert\n        /* \"#utility.yul\":3285:3465   */\n    tag_175:\n        /* \"#utility.yul\":3333:3410   */\n      0x4e487b7100000000000000000000000000000000000000000000000000000000\n        /* \"#utility.yul\":3330:3331   */\n      0x00\n        /* \"#utility.yul\":3323:3411   */\n      mstore\n        /* \"#utility.yul\":3430:3434   */\n      0x41\n        /* \"#utility.yul\":3427:3428   */\n      0x04\n        /* \"#utility.yul\":3420:3435   */\n      mstore\n        /* \"#utility.yul\":3454:3458   */\n      0x24\n        /* \"#utility.yul\":3451:3452   */\n      0x00\n        /* \"#utility.yul\":3444:3459   */\n      revert\n        /* \"#utility.yul\":3471:3752   */\n    tag_176:\n        /* \"#utility.yul\":3554:3581   */\n      tag_254\n        /* \"#utility.yul\":3576:3580   */\n      dup3\n        /* \"#utility.yul\":3554:3581   */\n      tag_171\n      jump\t// in\n    tag_254:\n        /* \"#utility.yul\":3546:3552   */\n      dup2\n        /* \"#utility.yul\":3542:3582   */\n      add\n        /* \"#utility.yul\":3684:3690   */\n      dup2\n        /* \"#utility.yul\":3672:3682   */\n      dup2\n        /* \"#utility.yul\":3669:3691   */\n      lt\n        /* \"#utility.yul\":3648:3666   */\n      0xffffffffffffffff\n        /* \"#utility.yul\":3636:3646   */\n      dup3\n        /* \"#utility.yul\":3633:3667   */\n      gt\n        /* \"#utility.yul\":3630:3692   */\n      or\n        /* \"#utility.yul\":3627:3715   */\n      iszero\n      tag_255\n      jumpi\n        /* \"#utility.yul\":3695:3713   */\n      tag_256\n      tag_175\n      jump\t// in\n    tag_256:\n        /* \"#utility.yul\":3627:3715   */\n    tag_255:\n        /* \"#utility.yul\":3735:3745   */\n      dup1\n        /* \"#utility.yul\":3731:3733   */\n      0x40\n        /* \"#utility.yul\":3724:3746   */\n      mstore\n        /* \"#utility.yul\":3514:3752   */\n      pop\n        /* \"#utility.yul\":3471:3752   */\n      pop\n      pop\n      jump\t// out\n        /* \"#utility.yul\":3758:3887   */\n    tag_177:\n        /* \"#utility.yul\":3792:3798   */\n      0x00\n        /* \"#utility.yul\":3819:3839   */\n      tag_258\n      tag_161\n      jump\t// in\n    tag_258:\n        /* \"#utility.yul\":3809:3839   */\n      swap1\n      pop\n        /* \"#utility.yul\":3848:3881   */\n      tag_259\n        /* \"#utility.yul\":3876:3880   */\n      dup3\n        /* \"#utility.yul\":3868:3874   */\n      dup3\n        /* \"#utility.yul\":3848:3881   */\n      tag_176\n      jump\t// in\n    tag_259:\n        /* \"#utility.yul\":3758:3887   */\n      swap2\n      swap1\n      pop\n      jump\t// out\n        /* \"#utility.yul\":3893:4201   */\n    tag_178:\n        /* \"#utility.yul\":3955:3959   */\n      0x00\n        /* \"#utility.yul\":4045:4063   */\n      0xffffffffffffffff\n        /* \"#utility.yul\":4037:4043   */\n      dup3\n        /* \"#utility.yul\":4034:4064   */\n      gt\n        /* \"#utility.yul\":4031:4087   */\n      iszero\n      tag_261\n      jumpi\n        /* \"#utility.yul\":4067:4085   */\n      tag_262\n      tag_175\n      jump\t// in\n    tag_262:\n        /* \"#utility.yul\":4031:4087   */\n    tag_261:\n        /* \"#utility.yul\":4105:4134   */\n      tag_263\n        /* \"#utility.yul\":4127:4133   */\n      dup3\n        /* \"#utility.yul\":4105:4134   */\n      tag_171\n      jump\t// in\n    tag_263:\n        /* \"#utility.yul\":4097:4134   */\n      swap1\n      pop\n        /* \"#utility.yul\":4189:4193   */\n      0x20\n        /* \"#utility.yul\":4183:4187   */\n      dup2\n        /* \"#utility.yul\":4179:4194   */\n      add\n        /* \"#utility.yul\":4171:4194   */\n      swap1\n      pop\n        /* \"#utility.yul\":3893:4201   */\n      swap2\n      swap1\n      pop\n      jump\t// out\n        /* \"#utility.yul\":4207:4355   */\n    tag_179:\n        /* \"#utility.yul\":4305:4311   */\n      dup3\n        /* \"#utility.yul\":4300:4303   */\n      dup2\n        /* \"#utility.yul\":4295:4298   */\n      dup4\n        /* \"#utility.yul\":4282:4312   */\n      calldatacopy\n        /* \"#utility.yul\":4346:4347   */\n      0x00\n        /* \"#utility.yul\":4337:4343   */\n      dup4\n        /* \"#utility.yul\":4332:4335   */\n      dup4\n        /* \"#utility.yul\":4328:4344   */\n      add\n        /* \"#utility.yul\":4321:4348   */\n      mstore\n        /* \"#utility.yul\":4207:4355   */\n      pop\n      pop\n      pop\n      jump\t// out\n        /* \"#utility.yul\":4361:4786   */\n    tag_180:\n        /* \"#utility.yul\":4439:4444   */\n      0x00\n        /* \"#utility.yul\":4464:4530   */\n      tag_266\n        /* \"#utility.yul\":4480:4529   */\n      tag_267\n        /* \"#utility.yul\":4522:4528   */\n      dup5\n        /* \"#utility.yul\":4480:4529   */\n      tag_178\n      jump\t// in\n    tag_267:\n        /* \"#utility.yul\":4464:4530   */\n      tag_177\n      jump\t// in\n    tag_266:\n        /* \"#utility.yul\":4455:4530   */\n      swap1\n      pop\n        /* \"#utility.yul\":4553:4559   */\n      dup3\n        /* \"#utility.yul\":4546:4551   */\n      dup2\n        /* \"#utility.yul\":4539:4560   */\n      mstore\n        /* \"#utility.yul\":4591:4595   */\n      0x20\n        /* \"#utility.yul\":4584:4589   */\n      dup2\n        /* \"#utility.yul\":4580:4596   */\n      add\n        /* \"#utility.yul\":4629:4632   */\n      dup5\n        /* \"#utility.yul\":4620:4626   */\n      dup5\n        /* \"#utility.yul\":4615:4618   */\n      dup5\n        /* \"#utility.yul\":4611:4627   */\n      add\n        /* \"#utility.yul\":4608:4633   */\n      gt\n        /* \"#utility.yul\":4605:4717   */\n      iszero\n      tag_268\n      jumpi\n        /* \"#utility.yul\":4636:4715   */\n      tag_269\n      tag_174\n      jump\t// in\n    tag_269:\n        /* \"#utility.yul\":4605:4717   */\n    tag_268:\n        /* \"#utility.yul\":4726:4780   */\n      tag_270\n        /* \"#utility.yul\":4773:4779   */\n      dup5\n        /* \"#utility.yul\":4768:4771   */\n      dup3\n        /* \"#utility.yul\":4763:4766   */\n      dup6\n        /* \"#utility.yul\":4726:4780   */\n      tag_179\n      jump\t// in\n    tag_270:\n        /* \"#utility.yul\":4445:4786   */\n      pop\n        /* \"#utility.yul\":4361:4786   */\n      swap4\n      swap3\n      pop\n      pop\n      pop\n      jump\t// out\n        /* \"#utility.yul\":4806:5146   */\n    tag_181:\n        /* \"#utility.yul\":4862:4867   */\n      0x00\n        /* \"#utility.yul\":4911:4914   */\n      dup3\n        /* \"#utility.yul\":4904:4908   */\n      0x1f\n        /* \"#utility.yul\":4896:4902   */\n      dup4\n        /* \"#utility.yul\":4892:4909   */\n      add\n        /* \"#utility.yul\":4888:4915   */\n      slt\n        /* \"#utility.yul\":4878:5000   */\n      tag_272\n      jumpi\n        /* \"#utility.yul\":4919:4998   */\n      tag_273\n      tag_173\n      jump\t// in\n    tag_273:\n        /* \"#utility.yul\":4878:5000   */\n    tag_272:\n        /* \"#utility.yul\":5036:5042   */\n      dup2\n        /* \"#utility.yul\":5023:5043   */\n      calldataload\n        /* \"#utility.yul\":5061:5140   */\n      tag_274\n        /* \"#utility.yul\":5136:5139   */\n      dup5\n        /* \"#utility.yul\":5128:5134   */\n      dup3\n        /* \"#utility.yul\":5121:5125   */\n      0x20\n        /* \"#utility.yul\":5113:5119   */\n      dup7\n        /* \"#utility.yul\":5109:5126   */\n      add\n        /* \"#utility.yul\":5061:5140   */\n      tag_180\n      jump\t// in\n    tag_274:\n        /* \"#utility.yul\":5052:5140   */\n      swap2\n      pop\n        /* \"#utility.yul\":4868:5146   */\n      pop\n        /* \"#utility.yul\":4806:5146   */\n      swap3\n      swap2\n      pop\n      pop\n      jump\t// out\n        /* \"#utility.yul\":5152:5806   */\n    tag_60:\n        /* \"#utility.yul\":5230:5236   */\n      0x00\n        /* \"#utility.yul\":5238:5244   */\n      dup1\n        /* \"#utility.yul\":5287:5289   */\n      0x40\n        /* \"#utility.yul\":5275:5284   */\n      dup4\n        /* \"#utility.yul\":5266:5273   */\n      dup6\n        /* \"#utility.yul\":5262:5285   */\n      sub\n        /* \"#utility.yul\":5258:5290   */\n      slt\n        /* \"#utility.yul\":5255:5374   */\n      iszero\n      tag_276\n      jumpi\n        /* \"#utility.yul\":5293:5372   */\n      tag_277\n      tag_162\n      jump\t// in\n    tag_277:\n        /* \"#utility.yul\":5255:5374   */\n    tag_276:\n        /* \"#utility.yul\":5441:5442   */\n      0x00\n        /* \"#utility.yul\":5430:5439   */\n      dup4\n        /* \"#utility.yul\":5426:5443   */\n      add\n        /* \"#utility.yul\":5413:5444   */\n      calldataload\n        /* \"#utility.yul\":5471:5489   */\n      0xffffffffffffffff\n        /* \"#utility.yul\":5463:5469   */\n      dup2\n        /* \"#utility.yul\":5460:5490   */\n      gt\n        /* \"#utility.yul\":5457:5574   */\n      iszero\n      tag_278\n      jumpi\n        /* \"#utility.yul\":5493:5572   */\n      tag_279\n      tag_163\n      jump\t// in\n    tag_279:\n        /* \"#utility.yul\":5457:5574   */\n    tag_278:\n        /* \"#utility.yul\":5598:5661   */\n      tag_280\n        /* \"#utility.yul\":5653:5660   */\n      dup6\n        /* \"#utility.yul\":5644:5650   */\n      dup3\n        /* \"#utility.yul\":5633:5642   */\n      dup7\n        /* \"#utility.yul\":5629:5651   */\n      add\n        /* \"#utility.yul\":5598:5661   */\n      tag_181\n      jump\t// in\n    tag_280:\n        /* \"#utility.yul\":5588:5661   */\n      swap3\n      pop\n        /* \"#utility.yul\":5384:5671   */\n      pop\n        /* \"#utility.yul\":5710:5712   */\n      0x20\n        /* \"#utility.yul\":5736:5789   */\n      tag_281\n        /* \"#utility.yul\":5781:5788   */\n      dup6\n        /* \"#utility.yul\":5772:5778   */\n      dup3\n        /* \"#utility.yul\":5761:5770   */\n      dup7\n        /* \"#utility.yul\":5757:5779   */\n      add\n        /* \"#utility.yul\":5736:5789   */\n      tag_165\n      jump\t// in\n    tag_281:\n        /* \"#utility.yul\":5726:5789   */\n      swap2\n      pop\n        /* \"#utility.yul\":5681:5799   */\n      pop\n        /* \"#utility.yul\":5152:5806   */\n      swap3\n      pop\n      swap3\n      swap1\n      pop\n      jump\t// out\n        /* \"#utility.yul\":5812:6321   */\n    tag_72:\n        /* \"#utility.yul\":5881:5887   */\n      0x00\n        /* \"#utility.yul\":5930:5932   */\n      0x20\n        /* \"#utility.yul\":5918:5927   */\n      dup3\n        /* \"#utility.yul\":5909:5916   */\n      dup5\n        /* \"#utility.yul\":5905:5928   */\n      sub\n        /* \"#utility.yul\":5901:5933   */\n      slt\n        /* \"#utility.yul\":5898:6017   */\n      iszero\n      tag_283\n      jumpi\n        /* \"#utility.yul\":5936:6015   */\n      tag_284\n      tag_162\n      jump\t// in\n    tag_284:\n        /* \"#utility.yul\":5898:6017   */\n    tag_283:\n        /* \"#utility.yul\":6084:6085   */\n      0x00\n        /* \"#utility.yul\":6073:6082   */\n      dup3\n        /* \"#utility.yul\":6069:6086   */\n      add\n        /* \"#utility.yul\":6056:6087   */\n      calldataload\n        /* \"#utility.yul\":6114:6132   */\n      0xffffffffffffffff\n        /* \"#utility.yul\":6106:6112   */\n      dup2\n        /* \"#utility.yul\":6103:6133   */\n      gt\n        /* \"#utility.yul\":6100:6217   */\n      iszero\n      tag_285\n      jumpi\n        /* \"#utility.yul\":6136:6215   */\n      tag_286\n      tag_163\n      jump\t// in\n    tag_286:\n        /* \"#utility.yul\":6100:6217   */\n    tag_285:\n        /* \"#utility.yul\":6241:6304   */\n      tag_287\n        /* \"#utility.yul\":6296:6303   */\n      dup5\n        /* \"#utility.yul\":6287:6293   */\n      dup3\n        /* \"#utility.yul\":6276:6285   */\n      dup6\n        /* \"#utility.yul\":6272:6294   */\n      add\n        /* \"#utility.yul\":6241:6304   */\n      tag_181\n      jump\t// in\n    tag_287:\n        /* \"#utility.yul\":6231:6304   */\n      swap2\n      pop\n        /* \"#utility.yul\":6027:6314   */\n      pop\n        /* \"#utility.yul\":5812:6321   */\n      swap3\n      swap2\n      pop\n      pop\n      jump\t// out\n        /* \"#utility.yul\":6327:6750   */\n    tag_79:\n        /* \"#utility.yul\":6468:6472   */\n      0x00\n        /* \"#utility.yul\":6506:6508   */\n      0x40\n        /* \"#utility.yul\":6495:6504   */\n      dup3\n        /* \"#utility.yul\":6491:6509   */\n      add\n        /* \"#utility.yul\":6483:6509   */\n      swap1\n      pop\n        /* \"#utility.yul\":6555:6564   */\n      dup2\n        /* \"#utility.yul\":6549:6553   */\n      dup2\n        /* \"#utility.yul\":6545:6565   */\n      sub\n        /* \"#utility.yul\":6541:6542   */\n      0x00\n        /* \"#utility.yul\":6530:6539   */\n      dup4\n        /* \"#utility.yul\":6526:6543   */\n      add\n        /* \"#utility.yul\":6519:6566   */\n      mstore\n        /* \"#utility.yul\":6583:6661   */\n      tag_289\n        /* \"#utility.yul\":6656:6660   */\n      dup2\n        /* \"#utility.yul\":6647:6653   */\n      dup6\n        /* \"#utility.yul\":6583:6661   */\n      tag_172\n      jump\t// in\n    tag_289:\n        /* \"#utility.yul\":6575:6661   */\n      swap1\n      pop\n        /* \"#utility.yul\":6671:6743   */\n      tag_290\n        /* \"#utility.yul\":6739:6741   */\n      0x20\n        /* \"#utility.yul\":6728:6737   */\n      dup4\n        /* \"#utility.yul\":6724:6742   */\n      add\n        /* \"#utility.yul\":6715:6721   */\n      dup5\n        /* \"#utility.yul\":6671:6743   */\n      tag_160\n      jump\t// in\n    tag_290:\n        /* \"#utility.yul\":6327:6750   */\n      swap4\n      swap3\n      pop\n      pop\n      pop\n      jump\t// out\n        /* \"#utility.yul\":6756:6873   */\n    tag_182:\n        /* \"#utility.yul\":6865:6866   */\n      0x00\n        /* \"#utility.yul\":6862:6863   */\n      dup1\n        /* \"#utility.yul\":6855:6867   */\n      revert\n        /* \"#utility.yul\":6879:6996   */\n    tag_183:\n        /* \"#utility.yul\":6988:6989   */\n      0x00\n        /* \"#utility.yul\":6985:6986   */\n      dup1\n        /* \"#utility.yul\":6978:6990   */\n      revert\n        /* \"#utility.yul\":7016:7569   */\n    tag_184:\n        /* \"#utility.yul\":7074:7082   */\n      0x00\n        /* \"#utility.yul\":7084:7090   */\n      dup1\n        /* \"#utility.yul\":7134:7137   */\n      dup4\n        /* \"#utility.yul\":7127:7131   */\n      0x1f\n        /* \"#utility.yul\":7119:7125   */\n      dup5\n        /* \"#utility.yul\":7115:7132   */\n      add\n        /* \"#utility.yul\":7111:7138   */\n      slt\n        /* \"#utility.yul\":7101:7223   */\n      tag_294\n      jumpi\n        /* \"#utility.yul\":7142:7221   */\n      tag_295\n      tag_173\n      jump\t// in\n    tag_295:\n        /* \"#utility.yul\":7101:7223   */\n    tag_294:\n        /* \"#utility.yul\":7255:7261   */\n      dup3\n        /* \"#utility.yul\":7242:7262   */\n      calldataload\n        /* \"#utility.yul\":7232:7262   */\n      swap1\n      pop\n        /* \"#utility.yul\":7285:7303   */\n      0xffffffffffffffff\n        /* \"#utility.yul\":7277:7283   */\n      dup2\n        /* \"#utility.yul\":7274:7304   */\n      gt\n        /* \"#utility.yul\":7271:7388   */\n      iszero\n      tag_296\n      jumpi\n        /* \"#utility.yul\":7307:7386   */\n      tag_297\n      tag_182\n      jump\t// in\n    tag_297:\n        /* \"#utility.yul\":7271:7388   */\n    tag_296:\n        /* \"#utility.yul\":7421:7425   */\n      0x20\n        /* \"#utility.yul\":7413:7419   */\n      dup4\n        /* \"#utility.yul\":7409:7426   */\n      add\n        /* \"#utility.yul\":7397:7426   */\n      swap2\n      pop\n        /* \"#utility.yul\":7475:7478   */\n      dup4\n        /* \"#utility.yul\":7467:7471   */\n      0x01\n        /* \"#utility.yul\":7459:7465   */\n      dup3\n        /* \"#utility.yul\":7455:7472   */\n      mul\n        /* \"#utility.yul\":7445:7453   */\n      dup4\n        /* \"#utility.yul\":7441:7473   */\n      add\n        /* \"#utility.yul\":7438:7479   */\n      gt\n        /* \"#utility.yul\":7435:7563   */\n      iszero\n      tag_298\n      jumpi\n        /* \"#utility.yul\":7482:7561   */\n      tag_299\n      tag_183\n      jump\t// in\n    tag_299:\n        /* \"#utility.yul\":7435:7563   */\n    tag_298:\n        /* \"#utility.yul\":7016:7569   */\n      swap3\n      pop\n      swap3\n      swap1\n      pop\n      jump\t// out\n        /* \"#utility.yul\":7575:8104   */\n    tag_85:\n        /* \"#utility.yul\":7646:7652   */\n      0x00\n        /* \"#utility.yul\":7654:7660   */\n      dup1\n        /* \"#utility.yul\":7703:7705   */\n      0x20\n        /* \"#utility.yul\":7691:7700   */\n      dup4\n        /* \"#utility.yul\":7682:7689   */\n      dup6\n        /* \"#utility.yul\":7678:7701   */\n      sub\n        /* \"#utility.yul\":7674:7706   */\n      slt\n        /* \"#utility.yul\":7671:7790   */\n      iszero\n      tag_301\n      jumpi\n        /* \"#utility.yul\":7709:7788   */\n      tag_302\n      tag_162\n      jump\t// in\n    tag_302:\n        /* \"#utility.yul\":7671:7790   */\n    tag_301:\n        /* \"#utility.yul\":7857:7858   */\n      0x00\n        /* \"#utility.yul\":7846:7855   */\n      dup4\n        /* \"#utility.yul\":7842:7859   */\n      add\n        /* \"#utility.yul\":7829:7860   */\n      calldataload\n        /* \"#utility.yul\":7887:7905   */\n      0xffffffffffffffff\n        /* \"#utility.yul\":7879:7885   */\n      dup2\n        /* \"#utility.yul\":7876:7906   */\n      gt\n        /* \"#utility.yul\":7873:7990   */\n      iszero\n      tag_303\n      jumpi\n        /* \"#utility.yul\":7909:7988   */\n      tag_304\n      tag_163\n      jump\t// in\n    tag_304:\n        /* \"#utility.yul\":7873:7990   */\n    tag_303:\n        /* \"#utility.yul\":8022:8087   */\n      tag_305\n        /* \"#utility.yul\":8079:8086   */\n      dup6\n        /* \"#utility.yul\":8070:8076   */\n      dup3\n        /* \"#utility.yul\":8059:8068   */\n      dup7\n        /* \"#utility.yul\":8055:8077   */\n      add\n        /* \"#utility.yul\":8022:8087   */\n      tag_184\n      jump\t// in\n    tag_305:\n        /* \"#utility.yul\":8004:8087   */\n      swap3\n      pop\n      swap3\n      pop\n        /* \"#utility.yul\":7800:8097   */\n      pop\n        /* \"#utility.yul\":7575:8104   */\n      swap3\n      pop\n      swap3\n      swap1\n      pop\n      jump\t// out\n        /* \"#utility.yul\":8110:8290   */\n    tag_102:\n        /* \"#utility.yul\":8158:8235   */\n      0x4e487b7100000000000000000000000000000000000000000000000000000000\n        /* \"#utility.yul\":8155:8156   */\n      0x00\n        /* \"#utility.yul\":8148:8236   */\n      mstore\n        /* \"#utility.yul\":8255:8259   */\n      0x21\n        /* \"#utility.yul\":8252:8253   */\n      0x04\n        /* \"#utility.yul\":8245:8260   */\n      mstore\n        /* \"#utility.yul\":8279:8283   */\n      0x24\n        /* \"#utility.yul\":8276:8277   */\n      0x00\n        /* \"#utility.yul\":8269:8284   */\n      revert\n        /* \"#utility.yul\":8296:8417   */\n    tag_185:\n        /* \"#utility.yul\":8385:8386   */\n      0x02\n        /* \"#utility.yul\":8378:8383   */\n      dup2\n        /* \"#utility.yul\":8375:8387   */\n      lt\n        /* \"#utility.yul\":8365:8411   */\n      tag_308\n      jumpi\n        /* \"#utility.yul\":8391:8409   */\n      tag_309\n      tag_102\n      jump\t// in\n    tag_309:\n        /* \"#utility.yul\":8365:8411   */\n    tag_308:\n        /* \"#utility.yul\":8296:8417   */\n      pop\n      jump\t// out\n        /* \"#utility.yul\":8423:8566   */\n    tag_186:\n        /* \"#utility.yul\":8476:8483   */\n      0x00\n        /* \"#utility.yul\":8505:8510   */\n      dup2\n        /* \"#utility.yul\":8494:8510   */\n      swap1\n      pop\n        /* \"#utility.yul\":8511:8560   */\n      tag_311\n        /* \"#utility.yul\":8554:8559   */\n      dup3\n        /* \"#utility.yul\":8511:8560   */\n      tag_185\n      jump\t// in\n    tag_311:\n        /* \"#utility.yul\":8423:8566   */\n      swap2\n      swap1\n      pop\n      jump\t// out\n        /* \"#utility.yul\":8572:8715   */\n    tag_187:\n        /* \"#utility.yul\":8636:8645   */\n      0x00\n        /* \"#utility.yul\":8669:8709   */\n      tag_313\n        /* \"#utility.yul\":8703:8708   */\n      dup3\n        /* \"#utility.yul\":8669:8709   */\n      tag_186\n      jump\t// in\n    tag_313:\n        /* \"#utility.yul\":8656:8709   */\n      swap1\n      pop\n        /* \"#utility.yul\":8572:8715   */\n      swap2\n      swap1\n      pop\n      jump\t// out\n        /* \"#utility.yul\":8721:8880   */\n    tag_188:\n        /* \"#utility.yul\":8822:8873   */\n      tag_315\n        /* \"#utility.yul\":8867:8872   */\n      dup2\n        /* \"#utility.yul\":8822:8873   */\n      tag_187\n      jump\t// in\n    tag_315:\n        /* \"#utility.yul\":8817:8820   */\n      dup3\n        /* \"#utility.yul\":8810:8874   */\n      mstore\n        /* \"#utility.yul\":8721:8880   */\n      pop\n      pop\n      jump\t// out\n        /* \"#utility.yul\":8886:9136   */\n    tag_94:\n        /* \"#utility.yul\":8993:8997   */\n      0x00\n        /* \"#utility.yul\":9031:9033   */\n      0x20\n        /* \"#utility.yul\":9020:9029   */\n      dup3\n        /* \"#utility.yul\":9016:9034   */\n      add\n        /* \"#utility.yul\":9008:9034   */\n      swap1\n      pop\n        /* \"#utility.yul\":9044:9129   */\n      tag_317\n        /* \"#utility.yul\":9126:9127   */\n      0x00\n        /* \"#utility.yul\":9115:9124   */\n      dup4\n        /* \"#utility.yul\":9111:9128   */\n      add\n        /* \"#utility.yul\":9102:9108   */\n      dup5\n        /* \"#utility.yul\":9044:9129   */\n      tag_188\n      jump\t// in\n    tag_317:\n        /* \"#utility.yul\":8886:9136   */\n      swap3\n      swap2\n      pop\n      pop\n      jump\t// out\n        /* \"#utility.yul\":9142:9322   */\n    tag_189:\n        /* \"#utility.yul\":9190:9267   */\n      0x4e487b7100000000000000000000000000000000000000000000000000000000\n        /* \"#utility.yul\":9187:9188   */\n      0x00\n        /* \"#utility.yul\":9180:9268   */\n      mstore\n        /* \"#utility.yul\":9287:9291   */\n      0x11\n        /* \"#utility.yul\":9284:9285   */\n      0x04\n        /* \"#utility.yul\":9277:9292   */\n      mstore\n        /* \"#utility.yul\":9311:9315   */\n      0x24\n        /* \"#utility.yul\":9308:9309   */\n      0x00\n        /* \"#utility.yul\":9301:9316   */\n      revert\n        /* \"#utility.yul\":9328:9519   */\n    tag_108:\n        /* \"#utility.yul\":9368:9371   */\n      0x00\n        /* \"#utility.yul\":9387:9407   */\n      tag_320\n        /* \"#utility.yul\":9405:9406   */\n      dup3\n        /* \"#utility.yul\":9387:9407   */\n      tag_159\n      jump\t// in\n    tag_320:\n        /* \"#utility.yul\":9382:9407   */\n      swap2\n      pop\n        /* \"#utility.yul\":9421:9441   */\n      tag_321\n        /* \"#utility.yul\":9439:9440   */\n      dup4\n        /* \"#utility.yul\":9421:9441   */\n      tag_159\n      jump\t// in\n    tag_321:\n        /* \"#utility.yul\":9416:9441   */\n      swap3\n      pop\n        /* \"#utility.yul\":9464:9465   */\n      dup3\n        /* \"#utility.yul\":9461:9462   */\n      dup3\n        /* \"#utility.yul\":9457:9466   */\n      add\n        /* \"#utility.yul\":9450:9466   */\n      swap1\n      pop\n        /* \"#utility.yul\":9485:9488   */\n      dup1\n        /* \"#utility.yul\":9482:9483   */\n      dup3\n        /* \"#utility.yul\":9479:9489   */\n      gt\n        /* \"#utility.yul\":9476:9512   */\n      iszero\n      tag_322\n      jumpi\n        /* \"#utility.yul\":9492:9510   */\n      tag_323\n      tag_189\n      jump\t// in\n    tag_323:\n        /* \"#utility.yul\":9476:9512   */\n    tag_322:\n        /* \"#utility.yul\":9328:9519   */\n      swap3\n      swap2\n      pop\n      pop\n      jump\t// out\n        /* \"#utility.yul\":9525:9758   */\n    tag_110:\n        /* \"#utility.yul\":9564:9567   */\n      0x00\n        /* \"#utility.yul\":9587:9611   */\n      tag_325\n        /* \"#utility.yul\":9605:9610   */\n      dup3\n        /* \"#utility.yul\":9587:9611   */\n      tag_159\n      jump\t// in\n    tag_325:\n        /* \"#utility.yul\":9578:9611   */\n      swap2\n      pop\n        /* \"#utility.yul\":9633:9699   */\n      0xffffffffffffffffffffffffffffffffffffffffffffffffffffffffffffffff\n        /* \"#utility.yul\":9626:9631   */\n      dup3\n        /* \"#utility.yul\":9623:9700   */\n      sub\n        /* \"#utility.yul\":9620:9723   */\n      tag_326\n      jumpi\n        /* \"#utility.yul\":9703:9721   */\n      tag_327\n      tag_189\n      jump\t// in\n    tag_327:\n        /* \"#utility.yul\":9620:9723   */\n    tag_326:\n        /* \"#utility.yul\":9750:9751   */\n      0x01\n        /* \"#utility.yul\":9743:9748   */\n      dup3\n        /* \"#utility.yul\":9739:9752   */\n      add\n        /* \"#utility.yul\":9732:9752   */\n      swap1\n      pop\n        /* \"#utility.yul\":9525:9758   */\n      swap2\n      swap1\n      pop\n      jump\t// out\n        /* \"#utility.yul\":9764:10198   */\n    tag_190:\n        /* \"#utility.yul\":9853:9858   */\n      0x00\n        /* \"#utility.yul\":9878:9944   */\n      tag_329\n        /* \"#utility.yul\":9894:9943   */\n      tag_330\n        /* \"#utility.yul\":9936:9942   */\n      dup5\n        /* \"#utility.yul\":9894:9943   */\n      tag_178\n      jump\t// in\n    tag_330:\n        /* \"#utility.yul\":9878:9944   */\n      tag_177\n      jump\t// in\n    tag_329:\n        /* \"#utility.yul\":9869:9944   */\n      swap1\n      pop\n        /* \"#utility.yul\":9967:9973   */\n      dup3\n        /* \"#utility.yul\":9960:9965   */\n      dup2\n        /* \"#utility.yul\":9953:9974   */\n      mstore\n        /* \"#utility.yul\":10005:10009   */\n      0x20\n        /* \"#utility.yul\":9998:10003   */\n      dup2\n        /* \"#utility.yul\":9994:10010   */\n      add\n        /* \"#utility.yul\":10043:10046   */\n      dup5\n        /* \"#utility.yul\":10034:10040   */\n      dup5\n        /* \"#utility.yul\":10029:10032   */\n      dup5\n        /* \"#utility.yul\":10025:10041   */\n      add\n        /* \"#utility.yul\":10022:10047   */\n      gt\n        /* \"#utility.yul\":10019:10131   */\n      iszero\n      tag_331\n      jumpi\n        /* \"#utility.yul\":10050:10129   */\n      tag_332\n      tag_174\n      jump\t// in\n    tag_332:\n        /* \"#utility.yul\":10019:10131   */\n    tag_331:\n        /* \"#utility.yul\":10140:10192   */\n      tag_333\n        /* \"#utility.yul\":10185:10191   */\n      dup5\n        /* \"#utility.yul\":10180:10183   */\n      dup3\n        /* \"#utility.yul\":10175:10178   */\n      dup6\n        /* \"#utility.yul\":10140:10192   */\n      tag_170\n      jump\t// in\n    tag_333:\n        /* \"#utility.yul\":9859:10198   */\n      pop\n        /* \"#utility.yul\":9764:10198   */\n      swap4\n      swap3\n      pop\n      pop\n      pop\n      jump\t// out\n        /* \"#utility.yul\":10218:10573   */\n    tag_191:\n        /* \"#utility.yul\":10285:10290   */\n      0x00\n        /* \"#utility.yul\":10334:10337   */\n      dup3\n        /* \"#utility.yul\":10327:10331   */\n      0x1f\n        /* \"#utility.yul\":10319:10325   */\n      dup4\n        /* \"#utility.yul\":10315:10332   */\n      add\n        /* \"#utility.yul\":10311:10338   */\n      slt\n        /* \"#utility.yul\":10301:10423   */\n      tag_335\n      jumpi\n        /* \"#utility.yul\":10342:10421   */\n      tag_336\n      tag_173\n      jump\t// in\n    tag_336:\n        /* \"#utility.yul\":10301:10423   */\n    tag_335:\n        /* \"#utility.yul\":10452:10458   */\n      dup2\n        /* \"#utility.yul\":10446:10459   */\n      mload\n        /* \"#utility.yul\":10477:10567   */\n      tag_337\n        /* \"#utility.yul\":10563:10566   */\n      dup5\n        /* \"#utility.yul\":10555:10561   */\n      dup3\n        /* \"#utility.yul\":10548:10552   */\n      0x20\n        /* \"#utility.yul\":10540:10546   */\n      dup7\n        /* \"#utility.yul\":10536:10553   */\n      add\n        /* \"#utility.yul\":10477:10567   */\n      tag_190\n      jump\t// in\n    tag_337:\n        /* \"#utility.yul\":10468:10567   */\n      swap2\n      pop\n        /* \"#utility.yul\":10291:10573   */\n      pop\n        /* \"#utility.yul\":10218:10573   */\n      swap3\n      swap2\n      pop\n      pop\n      jump\t// out\n        /* \"#utility.yul\":10579:11103   */\n    tag_125:\n        /* \"#utility.yul\":10659:10665   */\n      0x00\n        /* \"#utility.yul\":10708:10710   */\n      0x20\n        /* \"#utility.yul\":10696:10705   */\n      dup3\n        /* \"#utility.yul\":10687:10694   */\n      dup5\n        /* \"#utility.yul\":10683:10706   */\n      sub\n        /* \"#utility.yul\":10679:10711   */\n      slt\n        /* \"#utility.yul\":10676:10795   */\n      iszero\n      tag_339\n      jumpi\n        /* \"#utility.yul\":10714:10793   */\n      tag_340\n      tag_162\n      jump\t// in\n    tag_340:\n        /* \"#utility.yul\":10676:10795   */\n    tag_339:\n        /* \"#utility.yul\":10855:10856   */\n      0x00\n        /* \"#utility.yul\":10844:10853   */\n      dup3\n        /* \"#utility.yul\":10840:10857   */\n      add\n        /* \"#utility.yul\":10834:10858   */\n      mload\n        /* \"#utility.yul\":10885:10903   */\n      0xffffffffffffffff\n        /* \"#utility.yul\":10877:10883   */\n      dup2\n        /* \"#utility.yul\":10874:10904   */\n      gt\n        /* \"#utility.yul\":10871:10988   */\n      iszero\n      tag_341\n      jumpi\n        /* \"#utility.yul\":10907:10986   */\n      tag_342\n      tag_163\n      jump\t// in\n    tag_342:\n        /* \"#utility.yul\":10871:10988   */\n    tag_341:\n        /* \"#utility.yul\":11012:11086   */\n      tag_343\n        /* \"#utility.yul\":11078:11085   */\n      dup5\n        /* \"#utility.yul\":11069:11075   */\n      dup3\n        /* \"#utility.yul\":11058:11067   */\n      dup6\n        /* \"#utility.yul\":11054:11076   */\n      add\n        /* \"#utility.yul\":11012:11086   */\n      tag_191\n      jump\t// in\n    tag_343:\n        /* \"#utility.yul\":11002:11086   */\n      swap2\n      pop\n        /* \"#utility.yul\":10805:11096   */\n      pop\n        /* \"#utility.yul\":10579:11103   */\n      swap3\n      swap2\n      pop\n      pop\n      jump\t// out\n        /* \"#utility.yul\":11109:11289   */\n    tag_192:\n        /* \"#utility.yul\":11157:11234   */\n      0x4e487b7100000000000000000000000000000000000000000000000000000000\n        /* \"#utility.yul\":11154:11155   */\n      0x00\n        /* \"#utility.yul\":11147:11235   */\n      mstore\n        /* \"#utility.yul\":11254:11258   */\n      0x22\n        /* \"#utility.yul\":11251:11252   */\n      0x04\n        /* \"#utility.yul\":11244:11259   */\n      mstore\n        /* \"#utility.yul\":11278:11282   */\n      0x24\n        /* \"#utility.yul\":11275:11276   */\n      0x00\n        /* \"#utility.yul\":11268:11283   */\n      revert\n        /* \"#utility.yul\":11295:11615   */\n    tag_143:\n        /* \"#utility.yul\":11339:11345   */\n      0x00\n        /* \"#utility.yul\":11376:11377   */\n      0x02\n        /* \"#utility.yul\":11370:11374   */\n      dup3\n        /* \"#utility.yul\":11366:11378   */\n      div\n        /* \"#utility.yul\":11356:11378   */\n      swap1\n      pop\n        /* \"#utility.yul\":11423:11424   */\n      0x01\n        /* \"#utility.yul\":11417:11421   */\n      dup3\n        /* \"#utility.yul\":11413:11425   */\n      and\n        /* \"#utility.yul\":11444:11462   */\n      dup1\n        /* \"#utility.yul\":11434:11515   */\n      tag_346\n      jumpi\n        /* \"#utility.yul\":11500:11504   */\n      0x7f\n        /* \"#utility.yul\":11492:11498   */\n      dup3\n        /* \"#utility.yul\":11488:11505   */\n      and\n        /* \"#utility.yul\":11478:11505   */\n      swap2\n      pop\n        /* \"#utility.yul\":11434:11515   */\n    tag_346:\n        /* \"#utility.yul\":11562:11564   */\n      0x20\n        /* \"#utility.yul\":11554:11560   */\n      dup3\n        /* \"#utility.yul\":11551:11565   */\n      lt\n        /* \"#utility.yul\":11531:11549   */\n      dup2\n        /* \"#utility.yul\":11528:11566   */\n      sub\n        /* \"#utility.yul\":11525:11609   */\n      tag_347\n      jumpi\n        /* \"#utility.yul\":11581:11599   */\n      tag_348\n      tag_192\n      jump\t// in\n    tag_348:\n        /* \"#utility.yul\":11525:11609   */\n    tag_347:\n        /* \"#utility.yul\":11346:11615   */\n      pop\n        /* \"#utility.yul\":11295:11615   */\n      swap2\n      swap1\n      pop\n      jump\t// out\n        /* \"#utility.yul\":11621:11762   */\n    tag_193:\n        /* \"#utility.yul\":11670:11674   */\n      0x00\n        /* \"#utility.yul\":11693:11696   */\n      dup2\n        /* \"#utility.yul\":11685:11696   */\n      swap1\n      pop\n        /* \"#utility.yul\":11716:11719   */\n      dup2\n        /* \"#utility.yul\":11713:11714   */\n      0x00\n        /* \"#utility.yul\":11706:11720   */\n      mstore\n        /* \"#utility.yul\":11750:11754   */\n      0x20\n        /* \"#utility.yul\":11747:11748   */\n      0x00\n        /* \"#utility.yul\":11737:11755   */\n      keccak256\n        /* \"#utility.yul\":11729:11755   */\n      swap1\n      pop\n        /* \"#utility.yul\":11621:11762   */\n      swap2\n      swap1\n      pop\n      jump\t// out\n        /* \"#utility.yul\":11768:11861   */\n    tag_194:\n        /* \"#utility.yul\":11805:11811   */\n      0x00\n        /* \"#utility.yul\":11852:11854   */\n      0x20\n        /* \"#utility.yul\":11847:11849   */\n      0x1f\n        /* \"#utility.yul\":11840:11845   */\n      dup4\n        /* \"#utility.yul\":11836:11850   */\n      add\n        /* \"#utility.yul\":11832:11855   */\n      div\n        /* \"#utility.yul\":11822:11855   */\n      swap1\n      pop\n        /* \"#utility.yul\":11768:11861   */\n      swap2\n      swap1\n      pop\n      jump\t// out\n        /* \"#utility.yul\":11867:11974   */\n    tag_195:\n        /* \"#utility.yul\":11911:11919   */\n      0x00\n        /* \"#utility.yul\":11961:11966   */\n      dup3\n        /* \"#utility.yul\":11955:11959   */\n      dup3\n        /* \"#utility.yul\":11951:11967   */\n      shl\n        /* \"#utility.yul\":11930:11967   */\n      swap1\n      pop\n        /* \"#utility.yul\":11867:11974   */\n      swap3\n      swap2\n      pop\n      pop\n      jump\t// out\n        /* \"#utility.yul\":11980:12373   */\n    tag_196:\n        /* \"#utility.yul\":12049:12055   */\n      0x00\n        /* \"#utility.yul\":12099:12100   */\n      0x08\n        /* \"#utility.yul\":12087:12097   */\n      dup4\n        /* \"#utility.yul\":12083:12101   */\n      mul\n        /* \"#utility.yul\":12122:12219   */\n      tag_353\n        /* \"#utility.yul\":12152:12218   */\n      0xffffffffffffffffffffffffffffffffffffffffffffffffffffffffffffffff\n        /* \"#utility.yul\":12141:12150   */\n      dup3\n        /* \"#utility.yul\":12122:12219   */\n      tag_195\n      jump\t// in\n    tag_353:\n        /* \"#utility.yul\":12240:12279   */\n      tag_354\n        /* \"#utility.yul\":12270:12278   */\n      dup7\n        /* \"#utility.yul\":12259:12268   */\n      dup4\n        /* \"#utility.yul\":12240:12279   */\n      tag_195\n      jump\t// in\n    tag_354:\n        /* \"#utility.yul\":12228:12279   */\n      swap6\n      pop\n        /* \"#utility.yul\":12312:12316   */\n      dup1\n        /* \"#utility.yul\":12308:12317   */\n      not\n        /* \"#utility.yul\":12301:12306   */\n      dup5\n        /* \"#utility.yul\":12297:12318   */\n      and\n        /* \"#utility.yul\":12288:12318   */\n      swap4\n      pop\n        /* \"#utility.yul\":12361:12365   */\n      dup1\n        /* \"#utility.yul\":12351:12359   */\n      dup7\n        /* \"#utility.yul\":12347:12366   */\n      and\n        /* \"#utility.yul\":12340:12345   */\n      dup5\n        /* \"#utility.yul\":12337:12367   */\n      or\n        /* \"#utility.yul\":12327:12367   */\n      swap3\n      pop\n        /* \"#utility.yul\":12056:12373   */\n      pop\n      pop\n        /* \"#utility.yul\":11980:12373   */\n      swap4\n      swap3\n      pop\n      pop\n      pop\n      jump\t// out\n        /* \"#utility.yul\":12379:12439   */\n    tag_197:\n        /* \"#utility.yul\":12407:12410   */\n      0x00\n        /* \"#utility.yul\":12428:12433   */\n      dup2\n        /* \"#utility.yul\":12421:12433   */\n      swap1\n      pop\n        /* \"#utility.yul\":12379:12439   */\n      swap2\n      swap1\n      pop\n      jump\t// out\n        /* \"#utility.yul\":12445:12587   */\n    tag_198:\n        /* \"#utility.yul\":12495:12504   */\n      0x00\n        /* \"#utility.yul\":12528:12581   */\n      tag_357\n        /* \"#utility.yul\":12546:12580   */\n      tag_358\n        /* \"#utility.yul\":12555:12579   */\n      tag_359\n        /* \"#utility.yul\":12573:12578   */\n      dup5\n        /* \"#utility.yul\":12555:12579   */\n      tag_159\n      jump\t// in\n    tag_359:\n        /* \"#utility.yul\":12546:12580   */\n      tag_197\n      jump\t// in\n    tag_358:\n        /* \"#utility.yul\":12528:12581   */\n      tag_159\n      jump\t// in\n    tag_357:\n        /* \"#utility.yul\":12515:12581   */\n      swap1\n      pop\n        /* \"#utility.yul\":12445:12587   */\n      swap2\n      swap1\n      pop\n      jump\t// out\n        /* \"#utility.yul\":12593:12668   */\n    tag_199:\n        /* \"#utility.yul\":12636:12639   */\n      0x00\n        /* \"#utility.yul\":12657:12662   */\n      dup2\n        /* \"#utility.yul\":12650:12662   */\n      swap1\n      pop\n        /* \"#utility.yul\":12593:12668   */\n      swap2\n      swap1\n      pop\n      jump\t// out\n        /* \"#utility.yul\":12674:12943   */\n    tag_200:\n        /* \"#utility.yul\":12784:12823   */\n      tag_362\n        /* \"#utility.yul\":12815:12822   */\n      dup4\n        /* \"#utility.yul\":12784:12823   */\n      tag_198\n      jump\t// in\n    tag_362:\n        /* \"#utility.yul\":12845:12936   */\n      tag_363\n        /* \"#utility.yul\":12894:12935   */\n      tag_364\n        /* \"#utility.yul\":12918:12934   */\n      dup3\n        /* \"#utility.yul\":12894:12935   */\n      tag_199\n      jump\t// in\n    tag_364:\n        /* \"#utility.yul\":12886:12892   */\n      dup5\n        /* \"#utility.yul\":12879:12883   */\n      dup5\n        /* \"#utility.yul\":12873:12884   */\n      sload\n        /* \"#utility.yul\":12845:12936   */\n      tag_196\n      jump\t// in\n    tag_363:\n        /* \"#utility.yul\":12839:12843   */\n      dup3\n        /* \"#utility.yul\":12832:12937   */\n      sstore\n        /* \"#utility.yul\":12750:12943   */\n      pop\n        /* \"#utility.yul\":12674:12943   */\n      pop\n      pop\n      pop\n      jump\t// out\n        /* \"#utility.yul\":12949:13022   */\n    tag_201:\n        /* \"#utility.yul\":12994:12997   */\n      0x00\n        /* \"#utility.yul\":12949:13022   */\n      swap1\n      jump\t// out\n        /* \"#utility.yul\":13028:13217   */\n    tag_202:\n        /* \"#utility.yul\":13105:13137   */\n      tag_367\n      tag_201\n      jump\t// in\n    tag_367:\n        /* \"#utility.yul\":13146:13211   */\n      tag_368\n        /* \"#utility.yul\":13204:13210   */\n      dup2\n        /* \"#utility.yul\":13196:13202   */\n      dup5\n        /* \"#utility.yul\":13190:13194   */\n      dup5\n        /* \"#utility.yul\":13146:13211   */\n      tag_200\n      jump\t// in\n    tag_368:\n        /* \"#utility.yul\":13081:13217   */\n      pop\n        /* \"#utility.yul\":13028:13217   */\n      pop\n      pop\n      jump\t// out\n        /* \"#utility.yul\":13223:13409   */\n    tag_203:\n        /* \"#utility.yul\":13283:13403   */\n    tag_370:\n        /* \"#utility.yul\":13300:13303   */\n      dup2\n        /* \"#utility.yul\":13293:13298   */\n      dup2\n        /* \"#utility.yul\":13290:13304   */\n      lt\n        /* \"#utility.yul\":13283:13403   */\n      iszero\n      tag_372\n      jumpi\n        /* \"#utility.yul\":13354:13393   */\n      tag_373\n        /* \"#utility.yul\":13391:13392   */\n      0x00\n        /* \"#utility.yul\":13384:13389   */\n      dup3\n        /* \"#utility.yul\":13354:13393   */\n      tag_202\n      jump\t// in\n    tag_373:\n        /* \"#utility.yul\":13327:13328   */\n      0x01\n        /* \"#utility.yul\":13320:13325   */\n      dup2\n        /* \"#utility.yul\":13316:13329   */\n      add\n        /* \"#utility.yul\":13307:13329   */\n      swap1\n      pop\n        /* \"#utility.yul\":13283:13403   */\n      jump(tag_370)\n    tag_372:\n        /* \"#utility.yul\":13223:13409   */\n      pop\n      pop\n      jump\t// out\n        /* \"#utility.yul\":13415:13958   */\n    tag_204:\n        /* \"#utility.yul\":13516:13518   */\n      0x1f\n        /* \"#utility.yul\":13511:13514   */\n      dup3\n        /* \"#utility.yul\":13508:13519   */\n      gt\n        /* \"#utility.yul\":13505:13951   */\n      iszero\n      tag_375\n      jumpi\n        /* \"#utility.yul\":13550:13588   */\n      tag_376\n        /* \"#utility.yul\":13582:13587   */\n      dup2\n        /* \"#utility.yul\":13550:13588   */\n      tag_193\n      jump\t// in\n    tag_376:\n        /* \"#utility.yul\":13634:13663   */\n      tag_377\n        /* \"#utility.yul\":13652:13662   */\n      dup5\n        /* \"#utility.yul\":13634:13663   */\n      tag_194\n      jump\t// in\n    tag_377:\n        /* \"#utility.yul\":13624:13632   */\n      dup2\n        /* \"#utility.yul\":13620:13664   */\n      add\n        /* \"#utility.yul\":13817:13819   */\n      0x20\n        /* \"#utility.yul\":13805:13815   */\n      dup6\n        /* \"#utility.yul\":13802:13820   */\n      lt\n        /* \"#utility.yul\":13799:13848   */\n      iszero\n      tag_378\n      jumpi\n        /* \"#utility.yul\":13838:13846   */\n      dup2\n        /* \"#utility.yul\":13823:13846   */\n      swap1\n      pop\n        /* \"#utility.yul\":13799:13848   */\n    tag_378:\n        /* \"#utility.yul\":13861:13941   */\n      tag_379\n        /* \"#utility.yul\":13917:13939   */\n      tag_380\n        /* \"#utility.yul\":13935:13938   */\n      dup6\n        /* \"#utility.yul\":13917:13939   */\n      tag_194\n      jump\t// in\n    tag_380:\n        /* \"#utility.yul\":13907:13915   */\n      dup4\n        /* \"#utility.yul\":13903:13940   */\n      add\n        /* \"#utility.yul\":13890:13901   */\n      dup3\n        /* \"#utility.yul\":13861:13941   */\n      tag_203\n      jump\t// in\n    tag_379:\n        /* \"#utility.yul\":13520:13951   */\n      pop\n      pop\n        /* \"#utility.yul\":13505:13951   */\n    tag_375:\n        /* \"#utility.yul\":13415:13958   */\n      pop\n      pop\n      pop\n      jump\t// out\n        /* \"#utility.yul\":13964:14081   */\n    tag_205:\n        /* \"#utility.yul\":14018:14026   */\n      0x00\n        /* \"#utility.yul\":14068:14073   */\n      dup3\n        /* \"#utility.yul\":14062:14066   */\n      dup3\n        /* \"#utility.yul\":14058:14074   */\n      shr\n        /* \"#utility.yul\":14037:14074   */\n      swap1\n      pop\n        /* \"#utility.yul\":13964:14081   */\n      swap3\n      swap2\n      pop\n      pop\n      jump\t// out\n        /* \"#utility.yul\":14087:14256   */\n    tag_206:\n        /* \"#utility.yul\":14131:14137   */\n      0x00\n        /* \"#utility.yul\":14164:14215   */\n      tag_383\n        /* \"#utility.yul\":14212:14213   */\n      0x00\n        /* \"#utility.yul\":14208:14214   */\n      not\n        /* \"#utility.yul\":14200:14205   */\n      dup5\n        /* \"#utility.yul\":14197:14198   */\n      0x08\n        /* \"#utility.yul\":14193:14206   */\n      mul\n        /* \"#utility.yul\":14164:14215   */\n      tag_205\n      jump\t// in\n    tag_383:\n        /* \"#utility.yul\":14160:14216   */\n      not\n        /* \"#utility.yul\":14245:14249   */\n      dup1\n        /* \"#utility.yul\":14239:14243   */\n      dup4\n        /* \"#utility.yul\":14235:14250   */\n      and\n        /* \"#utility.yul\":14225:14250   */\n      swap2\n      pop\n        /* \"#utility.yul\":14138:14256   */\n      pop\n        /* \"#utility.yul\":14087:14256   */\n      swap3\n      swap2\n      pop\n      pop\n      jump\t// out\n        /* \"#utility.yul\":14261:14556   */\n    tag_207:\n        /* \"#utility.yul\":14337:14341   */\n      0x00\n        /* \"#utility.yul\":14483:14512   */\n      tag_385\n        /* \"#utility.yul\":14508:14511   */\n      dup4\n        /* \"#utility.yul\":14502:14506   */\n      dup4\n        /* \"#utility.yul\":14483:14512   */\n      tag_206\n      jump\t// in\n    tag_385:\n        /* \"#utility.yul\":14475:14512   */\n      swap2\n      pop\n        /* \"#utility.yul\":14545:14548   */\n      dup3\n        /* \"#utility.yul\":14542:14543   */\n      0x02\n        /* \"#utility.yul\":14538:14549   */\n      mul\n        /* \"#utility.yul\":14532:14536   */\n      dup3\n        /* \"#utility.yul\":14529:14550   */\n      or\n        /* \"#utility.yul\":14521:14550   */\n      swap1\n      pop\n        /* \"#utility.yul\":14261:14556   */\n      swap3\n      swap2\n      pop\n      pop\n      jump\t// out\n        /* \"#utility.yul\":14561:15956   */\n    tag_130:\n        /* \"#utility.yul\":14678:14715   */\n      tag_387\n        /* \"#utility.yul\":14711:14714   */\n      dup3\n        /* \"#utility.yul\":14678:14715   */\n      tag_168\n      jump\t// in\n    tag_387:\n        /* \"#utility.yul\":14780:14798   */\n      0xffffffffffffffff\n        /* \"#utility.yul\":14772:14778   */\n      dup2\n        /* \"#utility.yul\":14769:14799   */\n      gt\n        /* \"#utility.yul\":14766:14822   */\n      iszero\n      tag_388\n      jumpi\n        /* \"#utility.yul\":14802:14820   */\n      tag_389\n      tag_175\n      jump\t// in\n    tag_389:\n        /* \"#utility.yul\":14766:14822   */\n    tag_388:\n        /* \"#utility.yul\":14846:14884   */\n      tag_390\n        /* \"#utility.yul\":14878:14882   */\n      dup3\n        /* \"#utility.yul\":14872:14883   */\n      sload\n        /* \"#utility.yul\":14846:14884   */\n      tag_143\n      jump\t// in\n    tag_390:\n        /* \"#utility.yul\":14931:14998   */\n      tag_391\n        /* \"#utility.yul\":14991:14997   */\n      dup3\n        /* \"#utility.yul\":14983:14989   */\n      dup3\n        /* \"#utility.yul\":14977:14981   */\n      dup6\n        /* \"#utility.yul\":14931:14998   */\n      tag_204\n      jump\t// in\n    tag_391:\n        /* \"#utility.yul\":15025:15026   */\n      0x00\n        /* \"#utility.yul\":15049:15053   */\n      0x20\n        /* \"#utility.yul\":15036:15053   */\n      swap1\n      pop\n        /* \"#utility.yul\":15081:15083   */\n      0x1f\n        /* \"#utility.yul\":15073:15079   */\n      dup4\n        /* \"#utility.yul\":15070:15084   */\n      gt\n        /* \"#utility.yul\":15098:15099   */\n      0x01\n        /* \"#utility.yul\":15093:15711   */\n      dup2\n      eq\n      tag_393\n      jumpi\n        /* \"#utility.yul\":15755:15756   */\n      0x00\n        /* \"#utility.yul\":15772:15778   */\n      dup5\n        /* \"#utility.yul\":15769:15846   */\n      iszero\n      tag_394\n      jumpi\n        /* \"#utility.yul\":15821:15830   */\n      dup3\n        /* \"#utility.yul\":15816:15819   */\n      dup8\n        /* \"#utility.yul\":15812:15831   */\n      add\n        /* \"#utility.yul\":15806:15832   */\n      mload\n        /* \"#utility.yul\":15797:15832   */\n      swap1\n      pop\n        /* \"#utility.yul\":15769:15846   */\n    tag_394:\n        /* \"#utility.yul\":15872:15939   */\n      tag_395\n        /* \"#utility.yul\":15932:15938   */\n      dup6\n        /* \"#utility.yul\":15925:15930   */\n      dup3\n        /* \"#utility.yul\":15872:15939   */\n      tag_207\n      jump\t// in\n    tag_395:\n        /* \"#utility.yul\":15866:15870   */\n      dup7\n        /* \"#utility.yul\":15859:15940   */\n      sstore\n        /* \"#utility.yul\":15728:15950   */\n      pop\n        /* \"#utility.yul\":15063:15950   */\n      jump(tag_392)\n        /* \"#utility.yul\":15093:15711   */\n    tag_393:\n        /* \"#utility.yul\":15145:15149   */\n      0x1f\n        /* \"#utility.yul\":15141:15150   */\n      not\n        /* \"#utility.yul\":15133:15139   */\n      dup5\n        /* \"#utility.yul\":15129:15151   */\n      and\n        /* \"#utility.yul\":15179:15216   */\n      tag_396\n        /* \"#utility.yul\":15211:15215   */\n      dup7\n        /* \"#utility.yul\":15179:15216   */\n      tag_193\n      jump\t// in\n    tag_396:\n        /* \"#utility.yul\":15238:15239   */\n      0x00\n        /* \"#utility.yul\":15252:15460   */\n    tag_397:\n        /* \"#utility.yul\":15266:15273   */\n      dup3\n        /* \"#utility.yul\":15263:15264   */\n      dup2\n        /* \"#utility.yul\":15260:15274   */\n      lt\n        /* \"#utility.yul\":15252:15460   */\n      iszero\n      tag_399\n      jumpi\n        /* \"#utility.yul\":15345:15354   */\n      dup5\n        /* \"#utility.yul\":15340:15343   */\n      dup10\n        /* \"#utility.yul\":15336:15355   */\n      add\n        /* \"#utility.yul\":15330:15356   */\n      mload\n        /* \"#utility.yul\":15322:15328   */\n      dup3\n        /* \"#utility.yul\":15315:15357   */\n      sstore\n        /* \"#utility.yul\":15396:15397   */\n      0x01\n        /* \"#utility.yul\":15388:15394   */\n      dup3\n        /* \"#utility.yul\":15384:15398   */\n      add\n        /* \"#utility.yul\":15374:15398   */\n      swap2\n      pop\n        /* \"#utility.yul\":15443:15445   */\n      0x20\n        /* \"#utility.yul\":15432:15441   */\n      dup6\n        /* \"#utility.yul\":15428:15446   */\n      add\n        /* \"#utility.yul\":15415:15446   */\n      swap5\n      pop\n        /* \"#utility.yul\":15289:15293   */\n      0x20\n        /* \"#utility.yul\":15286:15287   */\n      dup2\n        /* \"#utility.yul\":15282:15294   */\n      add\n        /* \"#utility.yul\":15277:15294   */\n      swap1\n      pop\n        /* \"#utility.yul\":15252:15460   */\n      jump(tag_397)\n    tag_399:\n        /* \"#utility.yul\":15488:15494   */\n      dup7\n        /* \"#utility.yul\":15479:15486   */\n      dup4\n        /* \"#utility.yul\":15476:15495   */\n      lt\n        /* \"#utility.yul\":15473:15652   */\n      iszero\n      tag_400\n      jumpi\n        /* \"#utility.yul\":15546:15555   */\n      dup5\n        /* \"#utility.yul\":15541:15544   */\n      dup10\n        /* \"#utility.yul\":15537:15556   */\n      add\n        /* \"#utility.yul\":15531:15557   */\n      mload\n        /* \"#utility.yul\":15589:15637   */\n      tag_401\n        /* \"#utility.yul\":15631:15635   */\n      0x1f\n        /* \"#utility.yul\":15623:15629   */\n      dup10\n        /* \"#utility.yul\":15619:15636   */\n      and\n        /* \"#utility.yul\":15608:15617   */\n      dup3\n        /* \"#utility.yul\":15589:15637   */\n      tag_206\n      jump\t// in\n    tag_401:\n        /* \"#utility.yul\":15581:15587   */\n      dup4\n        /* \"#utility.yul\":15574:15638   */\n      sstore\n        /* \"#utility.yul\":15496:15652   */\n      pop\n        /* \"#utility.yul\":15473:15652   */\n    tag_400:\n        /* \"#utility.yul\":15698:15699   */\n      0x01\n        /* \"#utility.yul\":15694:15695   */\n      0x02\n        /* \"#utility.yul\":15686:15692   */\n      dup9\n        /* \"#utility.yul\":15682:15696   */\n      mul\n        /* \"#utility.yul\":15678:15700   */\n      add\n        /* \"#utility.yul\":15672:15676   */\n      dup9\n        /* \"#utility.yul\":15665:15701   */\n      sstore\n        /* \"#utility.yul\":15100:15711   */\n      pop\n      pop\n      pop\n        /* \"#utility.yul\":15063:15950   */\n    tag_392:\n      pop\n        /* \"#utility.yul\":14653:15956   */\n      pop\n      pop\n      pop\n        /* \"#utility.yul\":14561:15956   */\n      pop\n      pop\n      jump\t// out\n        /* \"#utility.yul\":15962:16110   */\n    tag_208:\n        /* \"#utility.yul\":16064:16075   */\n      0x00\n        /* \"#utility.yul\":16101:16104   */\n      dup2\n        /* \"#utility.yul\":16086:16104   */\n      swap1\n      pop\n        /* \"#utility.yul\":15962:16110   */\n      swap3\n      swap2\n      pop\n      pop\n      jump\t// out\n        /* \"#utility.yul\":16116:16506   */\n    tag_209:\n        /* \"#utility.yul\":16222:16225   */\n      0x00\n        /* \"#utility.yul\":16250:16289   */\n      tag_404\n        /* \"#utility.yul\":16283:16288   */\n      dup3\n        /* \"#utility.yul\":16250:16289   */\n      tag_168\n      jump\t// in\n    tag_404:\n        /* \"#utility.yul\":16305:16394   */\n      tag_405\n        /* \"#utility.yul\":16387:16393   */\n      dup2\n        /* \"#utility.yul\":16382:16385   */\n      dup6\n        /* \"#utility.yul\":16305:16394   */\n      tag_208\n      jump\t// in\n    tag_405:\n        /* \"#utility.yul\":16298:16394   */\n      swap4\n      pop\n        /* \"#utility.yul\":16403:16468   */\n      tag_406\n        /* \"#utility.yul\":16461:16467   */\n      dup2\n        /* \"#utility.yul\":16456:16459   */\n      dup6\n        /* \"#utility.yul\":16449:16453   */\n      0x20\n        /* \"#utility.yul\":16442:16447   */\n      dup7\n        /* \"#utility.yul\":16438:16454   */\n      add\n        /* \"#utility.yul\":16403:16468   */\n      tag_170\n      jump\t// in\n    tag_406:\n        /* \"#utility.yul\":16493:16499   */\n      dup1\n        /* \"#utility.yul\":16488:16491   */\n      dup5\n        /* \"#utility.yul\":16484:16500   */\n      add\n        /* \"#utility.yul\":16477:16500   */\n      swap2\n      pop\n        /* \"#utility.yul\":16226:16506   */\n      pop\n        /* \"#utility.yul\":16116:16506   */\n      swap3\n      swap2\n      pop\n      pop\n      jump\t// out\n        /* \"#utility.yul\":16512:16787   */\n    tag_133:\n        /* \"#utility.yul\":16644:16647   */\n      0x00\n        /* \"#utility.yul\":16666:16761   */\n      tag_408\n        /* \"#utility.yul\":16757:16760   */\n      dup3\n        /* \"#utility.yul\":16748:16754   */\n      dup5\n        /* \"#utility.yul\":16666:16761   */\n      tag_209\n      jump\t// in\n    tag_408:\n        /* \"#utility.yul\":16659:16761   */\n      swap2\n      pop\n        /* \"#utility.yul\":16778:16781   */\n      dup2\n        /* \"#utility.yul\":16771:16781   */\n      swap1\n      pop\n        /* \"#utility.yul\":16512:16787   */\n      swap3\n      swap2\n      pop\n      pop\n      jump\t// out\n        /* \"#utility.yul\":16817:17147   */\n    tag_210:\n        /* \"#utility.yul\":16933:16936   */\n      0x00\n        /* \"#utility.yul\":16954:17043   */\n      tag_410\n        /* \"#utility.yul\":17036:17042   */\n      dup4\n        /* \"#utility.yul\":17031:17034   */\n      dup6\n        /* \"#utility.yul\":16954:17043   */\n      tag_208\n      jump\t// in\n    tag_410:\n        /* \"#utility.yul\":16947:17043   */\n      swap4\n      pop\n        /* \"#utility.yul\":17053:17109   */\n      tag_411\n        /* \"#utility.yul\":17102:17108   */\n      dup4\n        /* \"#utility.yul\":17097:17100   */\n      dup6\n        /* \"#utility.yul\":17090:17095   */\n      dup5\n        /* \"#utility.yul\":17053:17109   */\n      tag_179\n      jump\t// in\n    tag_411:\n        /* \"#utility.yul\":17134:17140   */\n      dup3\n        /* \"#utility.yul\":17129:17132   */\n      dup5\n        /* \"#utility.yul\":17125:17141   */\n      add\n        /* \"#utility.yul\":17118:17141   */\n      swap1\n      pop\n        /* \"#utility.yul\":16817:17147   */\n      swap4\n      swap3\n      pop\n      pop\n      pop\n      jump\t// out\n        /* \"#utility.yul\":17153:17315   */\n    tag_211:\n        /* \"#utility.yul\":17293:17307   */\n      0x20697320617765736f6d65210000000000000000000000000000000000000000\n        /* \"#utility.yul\":17289:17290   */\n      0x00\n        /* \"#utility.yul\":17281:17287   */\n      dup3\n        /* \"#utility.yul\":17277:17291   */\n      add\n        /* \"#utility.yul\":17270:17308   */\n      mstore\n        /* \"#utility.yul\":17153:17315   */\n      pop\n      jump\t// out\n        /* \"#utility.yul\":17321:17723   */\n    tag_212:\n        /* \"#utility.yul\":17481:17484   */\n      0x00\n        /* \"#utility.yul\":17502:17587   */\n      tag_414\n        /* \"#utility.yul\":17584:17586   */\n      0x0c\n        /* \"#utility.yul\":17579:17582   */\n      dup4\n        /* \"#utility.yul\":17502:17587   */\n      tag_208\n      jump\t// in\n    tag_414:\n        /* \"#utility.yul\":17495:17587   */\n      swap2\n      pop\n        /* \"#utility.yul\":17596:17689   */\n      tag_415\n        /* \"#utility.yul\":17685:17688   */\n      dup3\n        /* \"#utility.yul\":17596:17689   */\n      tag_211\n      jump\t// in\n    tag_415:\n        /* \"#utility.yul\":17714:17716   */\n      0x0c\n        /* \"#utility.yul\":17709:17712   */\n      dup3\n        /* \"#utility.yul\":17705:17717   */\n      add\n        /* \"#utility.yul\":17698:17717   */\n      swap1\n      pop\n        /* \"#utility.yul\":17321:17723   */\n      swap2\n      swap1\n      pop\n      jump\t// out\n        /* \"#utility.yul\":17729:18290   */\n    tag_151:\n        /* \"#utility.yul\":17972:17975   */\n      0x00\n        /* \"#utility.yul\":17994:18099   */\n      tag_417\n        /* \"#utility.yul\":18095:18098   */\n      dup3\n        /* \"#utility.yul\":18086:18092   */\n      dup5\n        /* \"#utility.yul\":18078:18084   */\n      dup7\n        /* \"#utility.yul\":17994:18099   */\n      tag_210\n      jump\t// in\n    tag_417:\n        /* \"#utility.yul\":17987:18099   */\n      swap2\n      pop\n        /* \"#utility.yul\":18116:18264   */\n      tag_418\n        /* \"#utility.yul\":18260:18263   */\n      dup3\n        /* \"#utility.yul\":18116:18264   */\n      tag_212\n      jump\t// in\n    tag_418:\n        /* \"#utility.yul\":18109:18264   */\n      swap2\n      pop\n        /* \"#utility.yul\":18281:18284   */\n      dup2\n        /* \"#utility.yul\":18274:18284   */\n      swap1\n      pop\n        /* \"#utility.yul\":17729:18290   */\n      swap4\n      swap3\n      pop\n      pop\n      pop\n      jump\t// out\n        /* \"#utility.yul\":18296:18422   */\n    tag_213:\n        /* \"#utility.yul\":18333:18340   */\n      0x00\n        /* \"#utility.yul\":18373:18415   */\n      0xffffffffffffffffffffffffffffffffffffffff\n        /* \"#utility.yul\":18366:18371   */\n      dup3\n        /* \"#utility.yul\":18362:18416   */\n      and\n        /* \"#utility.yul\":18351:18416   */\n      swap1\n      pop\n        /* \"#utility.yul\":18296:18422   */\n      swap2\n      swap1\n      pop\n      jump\t// out\n        /* \"#utility.yul\":18428:18524   */\n    tag_214:\n        /* \"#utility.yul\":18465:18472   */\n      0x00\n        /* \"#utility.yul\":18494:18518   */\n      tag_421\n        /* \"#utility.yul\":18512:18517   */\n      dup3\n        /* \"#utility.yul\":18494:18518   */\n      tag_213\n      jump\t// in\n    tag_421:\n        /* \"#utility.yul\":18483:18518   */\n      swap1\n      pop\n        /* \"#utility.yul\":18428:18524   */\n      swap2\n      swap1\n      pop\n      jump\t// out\n        /* \"#utility.yul\":18530:18648   */\n    tag_215:\n        /* \"#utility.yul\":18617:18641   */\n      tag_423\n        /* \"#utility.yul\":18635:18640   */\n      dup2\n        /* \"#utility.yul\":18617:18641   */\n      tag_214\n      jump\t// in\n    tag_423:\n        /* \"#utility.yul\":18612:18615   */\n      dup3\n        /* \"#utility.yul\":18605:18642   */\n      mstore\n        /* \"#utility.yul\":18530:18648   */\n      pop\n      pop\n      jump\t// out\n        /* \"#utility.yul\":18654:18986   */\n    tag_154:\n        /* \"#utility.yul\":18775:18779   */\n      0x00\n        /* \"#utility.yul\":18813:18815   */\n      0x40\n        /* \"#utility.yul\":18802:18811   */\n      dup3\n        /* \"#utility.yul\":18798:18816   */\n      add\n        /* \"#utility.yul\":18790:18816   */\n      swap1\n      pop\n        /* \"#utility.yul\":18826:18897   */\n      tag_425\n        /* \"#utility.yul\":18894:18895   */\n      0x00\n        /* \"#utility.yul\":18883:18892   */\n      dup4\n        /* \"#utility.yul\":18879:18896   */\n      add\n        /* \"#utility.yul\":18870:18876   */\n      dup6\n        /* \"#utility.yul\":18826:18897   */\n      tag_160\n      jump\t// in\n    tag_425:\n        /* \"#utility.yul\":18907:18979   */\n      tag_426\n        /* \"#utility.yul\":18975:18977   */\n      0x20\n        /* \"#utility.yul\":18964:18973   */\n      dup4\n        /* \"#utility.yul\":18960:18978   */\n      add\n        /* \"#utility.yul\":18951:18957   */\n      dup5\n        /* \"#utility.yul\":18907:18979   */\n      tag_215\n      jump\t// in\n    tag_426:\n        /* \"#utility.yul\":18654:18986   */\n      swap4\n      swap3\n      pop\n      pop\n      pop\n      jump\t// out\n\n    auxdata: 0xa2646970667358221220e592db0281b4c0510f2ed30985692bc9e5cbca189505bf2e4df0a8c5fc48427b64736f6c634300081a0033\n}\n",
				"bytecode": {
					"linkReferences": {},
					"object": "6080604052348015600e575f80fd5b5061121d8061001c5f395ff3fe608060405234801561000f575f80fd5b506004361061012a575f3560e01c8063712248d3116100ab578063a621d15e1161006f578063a621d15e1461030b578063b39e12b514610329578063b633941814610359578063c19d93fb14610375578063cb6a33f8146103935761012a565b8063712248d3146102665780638701f8ca1461028257806387542eb3146102a05780638bab8dd5146102aa5780639e7a13ad146102da5761012a565b80633a32b549116100f25780633a32b549146101d457806343896a43146101f2578063471f7cdf146102105780636057361d1461022e5780636f760f411461024a5761012a565b80630a8a3d741461012e5780630cd2636e1461013857806314286bd2146101565780631db05a881461018657806322f3e2d4146101b6575b5f80fd5b6101366103c3565b005b6101406103ef565b60405161014d919061080a565b60405180910390f35b610170600480360381019061016b919061085e565b61042c565b60405161017d919061080a565b60405180910390f35b6101a0600480360381019061019b919061085e565b61044c565b6040516101ad919061080a565b60405180910390f35b6101be610466565b6040516101cb91906108a3565b60405180910390f35b6101dc6104a1565b6040516101e9919061092c565b60405180910390f35b6101fa6104de565b604051610207919061092c565b60405180910390f35b610218610555565b604051610225919061080a565b60405180910390f35b6102486004803603810190610243919061085e565b61055b565b005b610264600480360381019061025f9190610a78565b610565565b005b610280600480360381019061027b9190610a78565b6105c6565b005b61028a6105ed565b604051610297919061092c565b60405180910390f35b6102a86105fc565b005b6102c460048036038101906102bf9190610ad2565b610627565b6040516102d1919061080a565b60405180910390f35b6102f460048036038101906102ef919061085e565b610654565b604051610302929190610b19565b60405180910390f35b610313610709565b604051610320919061080a565b60405180910390f35b610343600480360381019061033e9190610ba4565b610712565b604051610350919061092c565b60405180910390f35b610373600480360381019061036e919061085e565b610743565b005b61037d610786565b60405161038a9190610c62565b60405180910390f35b6103ad60048036038101906103a8919061085e565b610798565b6040516103ba91906108a3565b60405180910390f35b600160035f6101000a81548160ff021916908360018111156103e8576103e7610bef565b5b0217905550565b5f805f90505f600190505b600554811161042457808261040f9190610ca8565b9150808061041c90610cdb565b9150506103fa565b508091505090565b6001818154811061043b575f80fd5b905f5260205f20015f915090505481565b5f8060058361045b9190610ca8565b905080915050919050565b5f80600181111561047a57610479610bef565b5b60035f9054906101000a900460ff16600181111561049b5761049a610bef565b5b14905090565b60606040518060400160405280601c81526020017f5468697320697320616e2065787465726e616c2066756e6374696f6e00000000815250905090565b60603073ffffffffffffffffffffffffffffffffffffffff16633a32b5496040518163ffffffff1660e01b81526004015f60405180830381865afa158015610528573d5f803e3d5ffd5b505050506040513d5f823e3d601f19601f820116820180604052508101906105509190610d90565b905090565b60055481565b8060058190555050565b6002604051806040016040528084815260200183815250908060018154018082558091505060019003905f5260205f2090600202015f909190919091505f820151815f0190816105b59190610fd1565b506020820151816001015550505050565b806004836040516105d791906110da565b9081526020016040518091039020819055505050565b60606105f76107b5565b905090565b5f60035f6101000a81548160ff021916908360018111156106205761061f610bef565b5b0217905550565b6004818051602081018201805184825260208301602085012081835280955050505050505f915090505481565b60028181548110610663575f80fd5b905f5260205f2090600202015f91509050805f01805461068290610e04565b80601f01602080910402602001604051908101604052809291908181526020018280546106ae90610e04565b80156106f95780601f106106d0576101008083540402835291602001916106f9565b820191905f5260205f20905b8154815290600101906020018083116106dc57829003601f168201915b5050505050908060010154905082565b5f600554905090565b60605f838360405160200161072892919061115e565b60405160208183030381529060405290508091505092915050565b806005819055507fe5f28171f43fc54876f02589c23cc70d19e06f868cc3811c456e8c61c296a27e813360405161077b9291906111c0565b60405180910390a150565b60035f9054906101000a900460ff1681565b5f8160055411156107ac57600190506107b0565b5f90505b919050565b60606040518060400160405280601c81526020017f5468697320697320616e20696e7465726e616c2066756e6374696f6e00000000815250905090565b5f819050919050565b610804816107f2565b82525050565b5f60208201905061081d5f8301846107fb565b92915050565b5f604051905090565b5f80fd5b5f80fd5b61083d816107f2565b8114610847575f80fd5b50565b5f8135905061085881610834565b92915050565b5f602082840312156108735761087261082c565b5b5f6108808482850161084a565b91505092915050565b5f8115159050919050565b61089d81610889565b82525050565b5f6020820190506108b65f830184610894565b92915050565b5f81519050919050565b5f82825260208201905092915050565b8281835e5f83830152505050565b5f601f19601f8301169050919050565b5f6108fe826108bc565b61090881856108c6565b93506109188185602086016108d6565b610921816108e4565b840191505092915050565b5f6020820190508181035f83015261094481846108f4565b905092915050565b5f80fd5b5f80fd5b7f4e487b71000000000000000000000000000000000000000000000000000000005f52604160045260245ffd5b61098a826108e4565b810181811067ffffffffffffffff821117156109a9576109a8610954565b5b80604052505050565b5f6109bb610823565b90506109c78282610981565b919050565b5f67ffffffffffffffff8211156109e6576109e5610954565b5b6109ef826108e4565b9050602081019050919050565b828183375f83830152505050565b5f610a1c610a17846109cc565b6109b2565b905082815260208101848484011115610a3857610a37610950565b5b610a438482856109fc565b509392505050565b5f82601f830112610a5f57610a5e61094c565b5b8135610a6f848260208601610a0a565b91505092915050565b5f8060408385031215610a8e57610a8d61082c565b5b5f83013567ffffffffffffffff811115610aab57610aaa610830565b5b610ab785828601610a4b565b9250506020610ac88582860161084a565b9150509250929050565b5f60208284031215610ae757610ae661082c565b5b5f82013567ffffffffffffffff811115610b0457610b03610830565b5b610b1084828501610a4b565b91505092915050565b5f6040820190508181035f830152610b3181856108f4565b9050610b4060208301846107fb565b9392505050565b5f80fd5b5f80fd5b5f8083601f840112610b6457610b6361094c565b5b8235905067ffffffffffffffff811115610b8157610b80610b47565b5b602083019150836001820283011115610b9d57610b9c610b4b565b5b9250929050565b5f8060208385031215610bba57610bb961082c565b5b5f83013567ffffffffffffffff811115610bd757610bd6610830565b5b610be385828601610b4f565b92509250509250929050565b7f4e487b71000000000000000000000000000000000000000000000000000000005f52602160045260245ffd5b60028110610c2d57610c2c610bef565b5b50565b5f819050610c3d82610c1c565b919050565b5f610c4c82610c30565b9050919050565b610c5c81610c42565b82525050565b5f602082019050610c755f830184610c53565b92915050565b7f4e487b71000000000000000000000000000000000000000000000000000000005f52601160045260245ffd5b5f610cb2826107f2565b9150610cbd836107f2565b9250828201905080821115610cd557610cd4610c7b565b5b92915050565b5f610ce5826107f2565b91507fffffffffffffffffffffffffffffffffffffffffffffffffffffffffffffffff8203610d1757610d16610c7b565b5b600182019050919050565b5f610d34610d2f846109cc565b6109b2565b905082815260208101848484011115610d5057610d4f610950565b5b610d5b8482856108d6565b509392505050565b5f82601f830112610d7757610d7661094c565b5b8151610d87848260208601610d22565b91505092915050565b5f60208284031215610da557610da461082c565b5b5f82015167ffffffffffffffff811115610dc257610dc1610830565b5b610dce84828501610d63565b91505092915050565b7f4e487b71000000000000000000000000000000000000000000000000000000005f52602260045260245ffd5b5f6002820490506001821680610e1b57607f821691505b602082108103610e2e57610e2d610dd7565b5b50919050565b5f819050815f5260205f209050919050565b5f6020601f8301049050919050565b5f82821b905092915050565b5f60088302610e907fffffffffffffffffffffffffffffffffffffffffffffffffffffffffffffffff82610e55565b610e9a8683610e55565b95508019841693508086168417925050509392505050565b5f819050919050565b5f610ed5610ed0610ecb846107f2565b610eb2565b6107f2565b9050919050565b5f819050919050565b610eee83610ebb565b610f02610efa82610edc565b848454610e61565b825550505050565b5f90565b610f16610f0a565b610f21818484610ee5565b505050565b5b81811015610f4457610f395f82610f0e565b600181019050610f27565b5050565b601f821115610f8957610f5a81610e34565b610f6384610e46565b81016020851015610f72578190505b610f86610f7e85610e46565b830182610f26565b50505b505050565b5f82821c905092915050565b5f610fa95f1984600802610f8e565b1980831691505092915050565b5f610fc18383610f9a565b9150826002028217905092915050565b610fda826108bc565b67ffffffffffffffff811115610ff357610ff2610954565b5b610ffd8254610e04565b611008828285610f48565b5f60209050601f831160018114611039575f8415611027578287015190505b6110318582610fb6565b865550611098565b601f19841661104786610e34565b5f5b8281101561106e57848901518255600182019150602085019450602081019050611049565b8683101561108b5784890151611087601f891682610f9a565b8355505b6001600288020188555050505b505050505050565b5f81905092915050565b5f6110b4826108bc565b6110be81856110a0565b93506110ce8185602086016108d6565b80840191505092915050565b5f6110e582846110aa565b915081905092915050565b5f6110fb83856110a0565b93506111088385846109fc565b82840190509392505050565b7f20697320617765736f6d652100000000000000000000000000000000000000005f82015250565b5f611148600c836110a0565b915061115382611114565b600c82019050919050565b5f61116a8284866110f0565b91506111758261113c565b91508190509392505050565b5f73ffffffffffffffffffffffffffffffffffffffff82169050919050565b5f6111aa82611181565b9050919050565b6111ba816111a0565b82525050565b5f6040820190506111d35f8301856107fb565b6111e060208301846111b1565b939250505056fea2646970667358221220e592db0281b4c0510f2ed30985692bc9e5cbca189505bf2e4df0a8c5fc48427b64736f6c634300081a0033",
					"opcodes": "PUSH1 0x80 PUSH1 0x40 MSTORE CALLVALUE DUP1 ISZERO PUSH1 0xE JUMPI PUSH0 DUP1 REVERT JUMPDEST POP PUSH2 0x121D DUP1 PUSH2 0x1C PUSH0 CODECOPY PUSH0 RETURN INVALID PUSH1 0x80 PUSH1 0x40 MSTORE CALLVALUE DUP1 ISZERO PUSH2 0xF JUMPI PUSH0 DUP1 REVERT JUMPDEST POP PUSH1 0x4 CALLDATASIZE LT PUSH2 0x12A JUMPI PUSH0 CALLDATALOAD PUSH1 0xE0 SHR DUP1 PUSH4 0x712248D3 GT PUSH2 0xAB JUMPI DUP1 PUSH4 0xA621D15E GT PUSH2 0x6F JUMPI DUP1 PUSH4 0xA621D15E EQ PUSH2 0x30B JUMPI DUP1 PUSH4 0xB39E12B5 EQ PUSH2 0x329 JUMPI DUP1 PUSH4 0xB6339418 EQ PUSH2 0x359 JUMPI DUP1 PUSH4 0xC19D93FB EQ PUSH2 0x375 JUMPI DUP1 PUSH4 0xCB6A33F8 EQ PUSH2 0x393 JUMPI PUSH2 0x12A JUMP JUMPDEST DUP1 PUSH4 0x712248D3 EQ PUSH2 0x266 JUMPI DUP1 PUSH4 0x8701F8CA EQ PUSH2 0x282 JUMPI DUP1 PUSH4 0x87542EB3 EQ PUSH2 0x2A0 JUMPI DUP1 PUSH4 0x8BAB8DD5 EQ PUSH2 0x2AA JUMPI DUP1 PUSH4 0x9E7A13AD EQ PUSH2 0x2DA JUMPI PUSH2 0x12A JUMP JUMPDEST DUP1 PUSH4 0x3A32B549 GT PUSH2 0xF2 JUMPI DUP1 PUSH4 0x3A32B549 EQ PUSH2 0x1D4 JUMPI DUP1 PUSH4 0x43896A43 EQ PUSH2 0x1F2 JUMPI DUP1 PUSH4 0x471F7CDF EQ PUSH2 0x210 JUMPI DUP1 PUSH4 0x6057361D EQ PUSH2 0x22E JUMPI DUP1 PUSH4 0x6F760F41 EQ PUSH2 0x24A JUMPI PUSH2 0x12A JUMP JUMPDEST DUP1 PUSH4 0xA8A3D74 EQ PUSH2 0x12E JUMPI DUP1 PUSH4 0xCD2636E EQ PUSH2 0x138 JUMPI DUP1 PUSH4 0x14286BD2 EQ PUSH2 0x156 JUMPI DUP1 PUSH4 0x1DB05A88 EQ PUSH2 0x186 JUMPI DUP1 PUSH4 0x22F3E2D4 EQ PUSH2 0x1B6 JUMPI JUMPDEST PUSH0 DUP1 REVERT JUMPDEST PUSH2 0x136 PUSH2 0x3C3 JUMP JUMPDEST STOP JUMPDEST PUSH2 0x140 PUSH2 0x3EF JUMP JUMPDEST PUSH1 0x40 MLOAD PUSH2 0x14D SWAP2 SWAP1 PUSH2 0x80A JUMP JUMPDEST PUSH1 0x40 MLOAD DUP1 SWAP2 SUB SWAP1 RETURN JUMPDEST PUSH2 0x170 PUSH1 0x4 DUP1 CALLDATASIZE SUB DUP2 ADD SWAP1 PUSH2 0x16B SWAP2 SWAP1 PUSH2 0x85E JUMP JUMPDEST PUSH2 0x42C JUMP JUMPDEST PUSH1 0x40 MLOAD PUSH2 0x17D SWAP2 SWAP1 PUSH2 0x80A JUMP JUMPDEST PUSH1 0x40 MLOAD DUP1 SWAP2 SUB SWAP1 RETURN JUMPDEST PUSH2 0x1A0 PUSH1 0x4 DUP1 CALLDATASIZE SUB DUP2 ADD SWAP1 PUSH2 0x19B SWAP2 SWAP1 PUSH2 0x85E JUMP JUMPDEST PUSH2 0x44C JUMP JUMPDEST PUSH1 0x40 MLOAD PUSH2 0x1AD SWAP2 SWAP1 PUSH2 0x80A JUMP JUMPDEST PUSH1 0x40 MLOAD DUP1 SWAP2 SUB SWAP1 RETURN JUMPDEST PUSH2 0x1BE PUSH2 0x466 JUMP JUMPDEST PUSH1 0x40 MLOAD PUSH2 0x1CB SWAP2 SWAP1 PUSH2 0x8A3 JUMP JUMPDEST PUSH1 0x40 MLOAD DUP1 SWAP2 SUB SWAP1 RETURN JUMPDEST PUSH2 0x1DC PUSH2 0x4A1 JUMP JUMPDEST PUSH1 0x40 MLOAD PUSH2 0x1E9 SWAP2 SWAP1 PUSH2 0x92C JUMP JUMPDEST PUSH1 0x40 MLOAD DUP1 SWAP2 SUB SWAP1 RETURN JUMPDEST PUSH2 0x1FA PUSH2 0x4DE JUMP JUMPDEST PUSH1 0x40 MLOAD PUSH2 0x207 SWAP2 SWAP1 PUSH2 0x92C JUMP JUMPDEST PUSH1 0x40 MLOAD DUP1 SWAP2 SUB SWAP1 RETURN JUMPDEST PUSH2 0x218 PUSH2 0x555 JUMP JUMPDEST PUSH1 0x40 MLOAD PUSH2 0x225 SWAP2 SWAP1 PUSH2 0x80A JUMP JUMPDEST PUSH1 0x40 MLOAD DUP1 SWAP2 SUB SWAP1 RETURN JUMPDEST PUSH2 0x248 PUSH1 0x4 DUP1 CALLDATASIZE SUB DUP2 ADD SWAP1 PUSH2 0x243 SWAP2 SWAP1 PUSH2 0x85E JUMP JUMPDEST PUSH2 0x55B JUMP JUMPDEST STOP JUMPDEST PUSH2 0x264 PUSH1 0x4 DUP1 CALLDATASIZE SUB DUP2 ADD SWAP1 PUSH2 0x25F SWAP2 SWAP1 PUSH2 0xA78 JUMP JUMPDEST PUSH2 0x565 JUMP JUMPDEST STOP JUMPDEST PUSH2 0x280 PUSH1 0x4 DUP1 CALLDATASIZE SUB DUP2 ADD SWAP1 PUSH2 0x27B SWAP2 SWAP1 PUSH2 0xA78 JUMP JUMPDEST PUSH2 0x5C6 JUMP JUMPDEST STOP JUMPDEST PUSH2 0x28A PUSH2 0x5ED JUMP JUMPDEST PUSH1 0x40 MLOAD PUSH2 0x297 SWAP2 SWAP1 PUSH2 0x92C JUMP JUMPDEST PUSH1 0x40 MLOAD DUP1 SWAP2 SUB SWAP1 RETURN JUMPDEST PUSH2 0x2A8 PUSH2 0x5FC JUMP JUMPDEST STOP JUMPDEST PUSH2 0x2C4 PUSH1 0x4 DUP1 CALLDATASIZE SUB DUP2 ADD SWAP1 PUSH2 0x2BF SWAP2 SWAP1 PUSH2 0xAD2 JUMP JUMPDEST PUSH2 0x627 JUMP JUMPDEST PUSH1 0x40 MLOAD PUSH2 0x2D1 SWAP2 SWAP1 PUSH2 0x80A JUMP JUMPDEST PUSH1 0x40 MLOAD DUP1 SWAP2 SUB SWAP1 RETURN JUMPDEST PUSH2 0x2F4 PUSH1 0x4 DUP1 CALLDATASIZE SUB DUP2 ADD SWAP1 PUSH2 0x2EF SWAP2 SWAP1 PUSH2 0x85E JUMP JUMPDEST PUSH2 0x654 JUMP JUMPDEST PUSH1 0x40 MLOAD PUSH2 0x302 SWAP3 SWAP2 SWAP1 PUSH2 0xB19 JUMP JUMPDEST PUSH1 0x40 MLOAD DUP1 SWAP2 SUB SWAP1 RETURN JUMPDEST PUSH2 0x313 PUSH2 0x709 JUMP JUMPDEST PUSH1 0x40 MLOAD PUSH2 0x320 SWAP2 SWAP1 PUSH2 0x80A JUMP JUMPDEST PUSH1 0x40 MLOAD DUP1 SWAP2 SUB SWAP1 RETURN JUMPDEST PUSH2 0x343 PUSH1 0x4 DUP1 CALLDATASIZE SUB DUP2 ADD SWAP1 PUSH2 0x33E SWAP2 SWAP1 PUSH2 0xBA4 JUMP JUMPDEST PUSH2 0x712 JUMP JUMPDEST PUSH1 0x40 MLOAD PUSH2 0x350 SWAP2 SWAP1 PUSH2 0x92C JUMP JUMPDEST PUSH1 0x40 MLOAD DUP1 SWAP2 SUB SWAP1 RETURN JUMPDEST PUSH2 0x373 PUSH1 0x4 DUP1 CALLDATASIZE SUB DUP2 ADD SWAP1 PUSH2 0x36E SWAP2 SWAP1 PUSH2 0x85E JUMP JUMPDEST PUSH2 0x743 JUMP JUMPDEST STOP JUMPDEST PUSH2 0x37D PUSH2 0x786 JUMP JUMPDEST PUSH1 0x40 MLOAD PUSH2 0x38A SWAP2 SWAP1 PUSH2 0xC62 JUMP JUMPDEST PUSH1 0x40 MLOAD DUP1 SWAP2 SUB SWAP1 RETURN JUMPDEST PUSH2 0x3AD PUSH1 0x4 DUP1 CALLDATASIZE SUB DUP2 ADD SWAP1 PUSH2 0x3A8 SWAP2 SWAP1 PUSH2 0x85E JUMP JUMPDEST PUSH2 0x798 JUMP JUMPDEST PUSH1 0x40 MLOAD PUSH2 0x3BA SWAP2 SWAP1 PUSH2 0x8A3 JUMP JUMPDEST PUSH1 0x40 MLOAD DUP1 SWAP2 SUB SWAP1 RETURN JUMPDEST PUSH1 0x1 PUSH1 0x3 PUSH0 PUSH2 0x100 EXP DUP2 SLOAD DUP2 PUSH1 0xFF MUL NOT AND SWAP1 DUP4 PUSH1 0x1 DUP2 GT ISZERO PUSH2 0x3E8 JUMPI PUSH2 0x3E7 PUSH2 0xBEF JUMP JUMPDEST JUMPDEST MUL OR SWAP1 SSTORE POP JUMP JUMPDEST PUSH0 DUP1 PUSH0 SWAP1 POP PUSH0 PUSH1 0x1 SWAP1 POP JUMPDEST PUSH1 0x5 SLOAD DUP2 GT PUSH2 0x424 JUMPI DUP1 DUP3 PUSH2 0x40F SWAP2 SWAP1 PUSH2 0xCA8 JUMP JUMPDEST SWAP2 POP DUP1 DUP1 PUSH2 0x41C SWAP1 PUSH2 0xCDB JUMP JUMPDEST SWAP2 POP POP PUSH2 0x3FA JUMP JUMPDEST POP DUP1 SWAP2 POP POP SWAP1 JUMP JUMPDEST PUSH1 0x1 DUP2 DUP2 SLOAD DUP2 LT PUSH2 0x43B JUMPI PUSH0 DUP1 REVERT JUMPDEST SWAP1 PUSH0 MSTORE PUSH1 0x20 PUSH0 KECCAK256 ADD PUSH0 SWAP2 POP SWAP1 POP SLOAD DUP2 JUMP JUMPDEST PUSH0 DUP1 PUSH1 0x5 DUP4 PUSH2 0x45B SWAP2 SWAP1 PUSH2 0xCA8 JUMP JUMPDEST SWAP1 POP DUP1 SWAP2 POP POP SWAP2 SWAP1 POP JUMP JUMPDEST PUSH0 DUP1 PUSH1 0x1 DUP2 GT ISZERO PUSH2 0x47A JUMPI PUSH2 0x479 PUSH2 0xBEF JUMP JUMPDEST JUMPDEST PUSH1 0x3 PUSH0 SWAP1 SLOAD SWAP1 PUSH2 0x100 EXP SWAP1 DIV PUSH1 0xFF AND PUSH1 0x1 DUP2 GT ISZERO PUSH2 0x49B JUMPI PUSH2 0x49A PUSH2 0xBEF JUMP JUMPDEST JUMPDEST EQ SWAP1 POP SWAP1 JUMP JUMPDEST PUSH1 0x60 PUSH1 0x40 MLOAD DUP1 PUSH1 0x40 ADD PUSH1 0x40 MSTORE DUP1 PUSH1 0x1C DUP2 MSTORE PUSH1 0x20 ADD PUSH32 0x5468697320697320616E2065787465726E616C2066756E6374696F6E00000000 DUP2 MSTORE POP SWAP1 POP SWAP1 JUMP JUMPDEST PUSH1 0x60 ADDRESS PUSH20 0xFFFFFFFFFFFFFFFFFFFFFFFFFFFFFFFFFFFFFFFF AND PUSH4 0x3A32B549 PUSH1 0x40 MLOAD DUP2 PUSH4 0xFFFFFFFF AND PUSH1 0xE0 SHL DUP2 MSTORE PUSH1 0x4 ADD PUSH0 PUSH1 0x40 MLOAD DUP1 DUP4 SUB DUP2 DUP7 GAS STATICCALL ISZERO DUP1 ISZERO PUSH2 0x528 JUMPI RETURNDATASIZE PUSH0 DUP1 RETURNDATACOPY RETURNDATASIZE PUSH0 REVERT JUMPDEST POP POP POP POP PUSH1 0x40 MLOAD RETURNDATASIZE PUSH0 DUP3 RETURNDATACOPY RETURNDATASIZE PUSH1 0x1F NOT PUSH1 0x1F DUP3 ADD AND DUP3 ADD DUP1 PUSH1 0x40 MSTORE POP DUP2 ADD SWAP1 PUSH2 0x550 SWAP2 SWAP1 PUSH2 0xD90 JUMP JUMPDEST SWAP1 POP SWAP1 JUMP JUMPDEST PUSH1 0x5 SLOAD DUP2 JUMP JUMPDEST DUP1 PUSH1 0x5 DUP2 SWAP1 SSTORE POP POP JUMP JUMPDEST PUSH1 0x2 PUSH1 0x40 MLOAD DUP1 PUSH1 0x40 ADD PUSH1 0x40 MSTORE DUP1 DUP5 DUP2 MSTORE PUSH1 0x20 ADD DUP4 DUP2 MSTORE POP SWAP1 DUP1 PUSH1 0x1 DUP2 SLOAD ADD DUP1 DUP3 SSTORE DUP1 SWAP2 POP POP PUSH1 0x1 SWAP1 SUB SWAP1 PUSH0 MSTORE PUSH1 0x20 PUSH0 KECCAK256 SWAP1 PUSH1 0x2 MUL ADD PUSH0 SWAP1 SWAP2 SWAP1 SWAP2 SWAP1 SWAP2 POP PUSH0 DUP3 ADD MLOAD DUP2 PUSH0 ADD SWAP1 DUP2 PUSH2 0x5B5 SWAP2 SWAP1 PUSH2 0xFD1 JUMP JUMPDEST POP PUSH1 0x20 DUP3 ADD MLOAD DUP2 PUSH1 0x1 ADD SSTORE POP POP POP POP JUMP JUMPDEST DUP1 PUSH1 0x4 DUP4 PUSH1 0x40 MLOAD PUSH2 0x5D7 SWAP2 SWAP1 PUSH2 0x10DA JUMP JUMPDEST SWAP1 DUP2 MSTORE PUSH1 0x20 ADD PUSH1 0x40 MLOAD DUP1 SWAP2 SUB SWAP1 KECCAK256 DUP2 SWAP1 SSTORE POP POP POP JUMP JUMPDEST PUSH1 0x60 PUSH2 0x5F7 PUSH2 0x7B5 JUMP JUMPDEST SWAP1 POP SWAP1 JUMP JUMPDEST PUSH0 PUSH1 0x3 PUSH0 PUSH2 0x100 EXP DUP2 SLOAD DUP2 PUSH1 0xFF MUL NOT AND SWAP1 DUP4 PUSH1 0x1 DUP2 GT ISZERO PUSH2 0x620 JUMPI PUSH2 0x61F PUSH2 0xBEF JUMP JUMPDEST JUMPDEST MUL OR SWAP1 SSTORE POP JUMP JUMPDEST PUSH1 0x4 DUP2 DUP1 MLOAD PUSH1 0x20 DUP2 ADD DUP3 ADD DUP1 MLOAD DUP5 DUP3 MSTORE PUSH1 0x20 DUP4 ADD PUSH1 0x20 DUP6 ADD KECCAK256 DUP2 DUP4 MSTORE DUP1 SWAP6 POP POP POP POP POP POP PUSH0 SWAP2 POP SWAP1 POP SLOAD DUP2 JUMP JUMPDEST PUSH1 0x2 DUP2 DUP2 SLOAD DUP2 LT PUSH2 0x663 JUMPI PUSH0 DUP1 REVERT JUMPDEST SWAP1 PUSH0 MSTORE PUSH1 0x20 PUSH0 KECCAK256 SWAP1 PUSH1 0x2 MUL ADD PUSH0 SWAP2 POP SWAP1 POP DUP1 PUSH0 ADD DUP1 SLOAD PUSH2 0x682 SWAP1 PUSH2 0xE04 JUMP JUMPDEST DUP1 PUSH1 0x1F ADD PUSH1 0x20 DUP1 SWAP2 DIV MUL PUSH1 0x20 ADD PUSH1 0x40 MLOAD SWAP1 DUP2 ADD PUSH1 0x40 MSTORE DUP1 SWAP3 SWAP2 SWAP1 DUP2 DUP2 MSTORE PUSH1 0x20 ADD DUP3 DUP1 SLOAD PUSH2 0x6AE SWAP1 PUSH2 0xE04 JUMP JUMPDEST DUP1 ISZERO PUSH2 0x6F9 JUMPI DUP1 PUSH1 0x1F LT PUSH2 0x6D0 JUMPI PUSH2 0x100 DUP1 DUP4 SLOAD DIV MUL DUP4 MSTORE SWAP2 PUSH1 0x20 ADD SWAP2 PUSH2 0x6F9 JUMP JUMPDEST DUP3 ADD SWAP2 SWAP1 PUSH0 MSTORE PUSH1 0x20 PUSH0 KECCAK256 SWAP1 JUMPDEST DUP2 SLOAD DUP2 MSTORE SWAP1 PUSH1 0x1 ADD SWAP1 PUSH1 0x20 ADD DUP1 DUP4 GT PUSH2 0x6DC JUMPI DUP3 SWAP1 SUB PUSH1 0x1F AND DUP3 ADD SWAP2 JUMPDEST POP POP POP POP POP SWAP1 DUP1 PUSH1 0x1 ADD SLOAD SWAP1 POP DUP3 JUMP JUMPDEST PUSH0 PUSH1 0x5 SLOAD SWAP1 POP SWAP1 JUMP JUMPDEST PUSH1 0x60 PUSH0 DUP4 DUP4 PUSH1 0x40 MLOAD PUSH1 0x20 ADD PUSH2 0x728 SWAP3 SWAP2 SWAP1 PUSH2 0x115E JUMP JUMPDEST PUSH1 0x40 MLOAD PUSH1 0x20 DUP2 DUP4 SUB SUB DUP2 MSTORE SWAP1 PUSH1 0x40 MSTORE SWAP1 POP DUP1 SWAP2 POP POP SWAP3 SWAP2 POP POP JUMP JUMPDEST DUP1 PUSH1 0x5 DUP2 SWAP1 SSTORE POP PUSH32 0xE5F28171F43FC54876F02589C23CC70D19E06F868CC3811C456E8C61C296A27E DUP2 CALLER PUSH1 0x40 MLOAD PUSH2 0x77B SWAP3 SWAP2 SWAP1 PUSH2 0x11C0 JUMP JUMPDEST PUSH1 0x40 MLOAD DUP1 SWAP2 SUB SWAP1 LOG1 POP JUMP JUMPDEST PUSH1 0x3 PUSH0 SWAP1 SLOAD SWAP1 PUSH2 0x100 EXP SWAP1 DIV PUSH1 0xFF AND DUP2 JUMP JUMPDEST PUSH0 DUP2 PUSH1 0x5 SLOAD GT ISZERO PUSH2 0x7AC JUMPI PUSH1 0x1 SWAP1 POP PUSH2 0x7B0 JUMP JUMPDEST PUSH0 SWAP1 POP JUMPDEST SWAP2 SWAP1 POP JUMP JUMPDEST PUSH1 0x60 PUSH1 0x40 MLOAD DUP1 PUSH1 0x40 ADD PUSH1 0x40 MSTORE DUP1 PUSH1 0x1C DUP2 MSTORE PUSH1 0x20 ADD PUSH32 0x5468697320697320616E20696E7465726E616C2066756E6374696F6E00000000 DUP2 MSTORE POP SWAP1 POP SWAP1 JUMP JUMPDEST PUSH0 DUP2 SWAP1 POP SWAP2 SWAP1 POP JUMP JUMPDEST PUSH2 0x804 DUP2 PUSH2 0x7F2 JUMP JUMPDEST DUP3 MSTORE POP POP JUMP JUMPDEST PUSH0 PUSH1 0x20 DUP3 ADD SWAP1 POP PUSH2 0x81D PUSH0 DUP4 ADD DUP5 PUSH2 0x7FB JUMP JUMPDEST SWAP3 SWAP2 POP POP JUMP JUMPDEST PUSH0 PUSH1 0x40 MLOAD SWAP1 POP SWAP1 JUMP JUMPDEST PUSH0 DUP1 REVERT JUMPDEST PUSH0 DUP1 REVERT JUMPDEST PUSH2 0x83D DUP2 PUSH2 0x7F2 JUMP JUMPDEST DUP2 EQ PUSH2 0x847 JUMPI PUSH0 DUP1 REVERT JUMPDEST POP JUMP JUMPDEST PUSH0 DUP2 CALLDATALOAD SWAP1 POP PUSH2 0x858 DUP2 PUSH2 0x834 JUMP JUMPDEST SWAP3 SWAP2 POP POP JUMP JUMPDEST PUSH0 PUSH1 0x20 DUP3 DUP5 SUB SLT ISZERO PUSH2 0x873 JUMPI PUSH2 0x872 PUSH2 0x82C JUMP JUMPDEST JUMPDEST PUSH0 PUSH2 0x880 DUP5 DUP3 DUP6 ADD PUSH2 0x84A JUMP JUMPDEST SWAP2 POP POP SWAP3 SWAP2 POP POP JUMP JUMPDEST PUSH0 DUP2 ISZERO ISZERO SWAP1 POP SWAP2 SWAP1 POP JUMP JUMPDEST PUSH2 0x89D DUP2 PUSH2 0x889 JUMP JUMPDEST DUP3 MSTORE POP POP JUMP JUMPDEST PUSH0 PUSH1 0x20 DUP3 ADD SWAP1 POP PUSH2 0x8B6 PUSH0 DUP4 ADD DUP5 PUSH2 0x894 JUMP JUMPDEST SWAP3 SWAP2 POP POP JUMP JUMPDEST PUSH0 DUP2 MLOAD SWAP1 POP SWAP2 SWAP1 POP JUMP JUMPDEST PUSH0 DUP3 DUP3 MSTORE PUSH1 0x20 DUP3 ADD SWAP1 POP SWAP3 SWAP2 POP POP JUMP JUMPDEST DUP3 DUP2 DUP4 MCOPY PUSH0 DUP4 DUP4 ADD MSTORE POP POP POP JUMP JUMPDEST PUSH0 PUSH1 0x1F NOT PUSH1 0x1F DUP4 ADD AND SWAP1 POP SWAP2 SWAP1 POP JUMP JUMPDEST PUSH0 PUSH2 0x8FE DUP3 PUSH2 0x8BC JUMP JUMPDEST PUSH2 0x908 DUP2 DUP6 PUSH2 0x8C6 JUMP JUMPDEST SWAP4 POP PUSH2 0x918 DUP2 DUP6 PUSH1 0x20 DUP7 ADD PUSH2 0x8D6 JUMP JUMPDEST PUSH2 0x921 DUP2 PUSH2 0x8E4 JUMP JUMPDEST DUP5 ADD SWAP2 POP POP SWAP3 SWAP2 POP POP JUMP JUMPDEST PUSH0 PUSH1 0x20 DUP3 ADD SWAP1 POP DUP2 DUP2 SUB PUSH0 DUP4 ADD MSTORE PUSH2 0x944 DUP2 DUP5 PUSH2 0x8F4 JUMP JUMPDEST SWAP1 POP SWAP3 SWAP2 POP POP JUMP JUMPDEST PUSH0 DUP1 REVERT JUMPDEST PUSH0 DUP1 REVERT JUMPDEST PUSH32 0x4E487B7100000000000000000000000000000000000000000000000000000000 PUSH0 MSTORE PUSH1 0x41 PUSH1 0x4 MSTORE PUSH1 0x24 PUSH0 REVERT JUMPDEST PUSH2 0x98A DUP3 PUSH2 0x8E4 JUMP JUMPDEST DUP2 ADD DUP2 DUP2 LT PUSH8 0xFFFFFFFFFFFFFFFF DUP3 GT OR ISZERO PUSH2 0x9A9 JUMPI PUSH2 0x9A8 PUSH2 0x954 JUMP JUMPDEST JUMPDEST DUP1 PUSH1 0x40 MSTORE POP POP POP JUMP JUMPDEST PUSH0 PUSH2 0x9BB PUSH2 0x823 JUMP JUMPDEST SWAP1 POP PUSH2 0x9C7 DUP3 DUP3 PUSH2 0x981 JUMP JUMPDEST SWAP2 SWAP1 POP JUMP JUMPDEST PUSH0 PUSH8 0xFFFFFFFFFFFFFFFF DUP3 GT ISZERO PUSH2 0x9E6 JUMPI PUSH2 0x9E5 PUSH2 0x954 JUMP JUMPDEST JUMPDEST PUSH2 0x9EF DUP3 PUSH2 0x8E4 JUMP JUMPDEST SWAP1 POP PUSH1 0x20 DUP2 ADD SWAP1 POP SWAP2 SWAP1 POP JUMP JUMPDEST DUP3 DUP2 DUP4 CALLDATACOPY PUSH0 DUP4 DUP4 ADD MSTORE POP POP POP JUMP JUMPDEST PUSH0 PUSH2 0xA1C PUSH2 0xA17 DUP5 PUSH2 0x9CC JUMP JUMPDEST PUSH2 0x9B2 JUMP JUMPDEST SWAP1 POP DUP3 DUP2 MSTORE PUSH1 0x20 DUP2 ADD DUP5 DUP5 DUP5 ADD GT ISZERO PUSH2 0xA38 JUMPI PUSH2 0xA37 PUSH2 0x950 JUMP JUMPDEST JUMPDEST PUSH2 0xA43 DUP5 DUP3 DUP6 PUSH2 0x9FC JUMP JUMPDEST POP SWAP4 SWAP3 POP POP POP JUMP JUMPDEST PUSH0 DUP3 PUSH1 0x1F DUP4 ADD SLT PUSH2 0xA5F JUMPI PUSH2 0xA5E PUSH2 0x94C JUMP JUMPDEST JUMPDEST DUP2 CALLDATALOAD PUSH2 0xA6F DUP5 DUP3 PUSH1 0x20 DUP7 ADD PUSH2 0xA0A JUMP JUMPDEST SWAP2 POP POP SWAP3 SWAP2 POP POP JUMP JUMPDEST PUSH0 DUP1 PUSH1 0x40 DUP4 DUP6 SUB SLT ISZERO PUSH2 0xA8E JUMPI PUSH2 0xA8D PUSH2 0x82C JUMP JUMPDEST JUMPDEST PUSH0 DUP4 ADD CALLDATALOAD PUSH8 0xFFFFFFFFFFFFFFFF DUP2 GT ISZERO PUSH2 0xAAB JUMPI PUSH2 0xAAA PUSH2 0x830 JUMP JUMPDEST JUMPDEST PUSH2 0xAB7 DUP6 DUP3 DUP7 ADD PUSH2 0xA4B JUMP JUMPDEST SWAP3 POP POP PUSH1 0x20 PUSH2 0xAC8 DUP6 DUP3 DUP7 ADD PUSH2 0x84A JUMP JUMPDEST SWAP2 POP POP SWAP3 POP SWAP3 SWAP1 POP JUMP JUMPDEST PUSH0 PUSH1 0x20 DUP3 DUP5 SUB SLT ISZERO PUSH2 0xAE7 JUMPI PUSH2 0xAE6 PUSH2 0x82C JUMP JUMPDEST JUMPDEST PUSH0 DUP3 ADD CALLDATALOAD PUSH8 0xFFFFFFFFFFFFFFFF DUP2 GT ISZERO PUSH2 0xB04 JUMPI PUSH2 0xB03 PUSH2 0x830 JUMP JUMPDEST JUMPDEST PUSH2 0xB10 DUP5 DUP3 DUP6 ADD PUSH2 0xA4B JUMP JUMPDEST SWAP2 POP POP SWAP3 SWAP2 POP POP JUMP JUMPDEST PUSH0 PUSH1 0x40 DUP3 ADD SWAP1 POP DUP2 DUP2 SUB PUSH0 DUP4 ADD MSTORE PUSH2 0xB31 DUP2 DUP6 PUSH2 0x8F4 JUMP JUMPDEST SWAP1 POP PUSH2 0xB40 PUSH1 0x20 DUP4 ADD DUP5 PUSH2 0x7FB JUMP JUMPDEST SWAP4 SWAP3 POP POP POP JUMP JUMPDEST PUSH0 DUP1 REVERT JUMPDEST PUSH0 DUP1 REVERT JUMPDEST PUSH0 DUP1 DUP4 PUSH1 0x1F DUP5 ADD SLT PUSH2 0xB64 JUMPI PUSH2 0xB63 PUSH2 0x94C JUMP JUMPDEST JUMPDEST DUP3 CALLDATALOAD SWAP1 POP PUSH8 0xFFFFFFFFFFFFFFFF DUP2 GT ISZERO PUSH2 0xB81 JUMPI PUSH2 0xB80 PUSH2 0xB47 JUMP JUMPDEST JUMPDEST PUSH1 0x20 DUP4 ADD SWAP2 POP DUP4 PUSH1 0x1 DUP3 MUL DUP4 ADD GT ISZERO PUSH2 0xB9D JUMPI PUSH2 0xB9C PUSH2 0xB4B JUMP JUMPDEST JUMPDEST SWAP3 POP SWAP3 SWAP1 POP JUMP JUMPDEST PUSH0 DUP1 PUSH1 0x20 DUP4 DUP6 SUB SLT ISZERO PUSH2 0xBBA JUMPI PUSH2 0xBB9 PUSH2 0x82C JUMP JUMPDEST JUMPDEST PUSH0 DUP4 ADD CALLDATALOAD PUSH8 0xFFFFFFFFFFFFFFFF DUP2 GT ISZERO PUSH2 0xBD7 JUMPI PUSH2 0xBD6 PUSH2 0x830 JUMP JUMPDEST JUMPDEST PUSH2 0xBE3 DUP6 DUP3 DUP7 ADD PUSH2 0xB4F JUMP JUMPDEST SWAP3 POP SWAP3 POP POP SWAP3 POP SWAP3 SWAP1 POP JUMP JUMPDEST PUSH32 0x4E487B7100000000000000000000000000000000000000000000000000000000 PUSH0 MSTORE PUSH1 0x21 PUSH1 0x4 MSTORE PUSH1 0x24 PUSH0 REVERT JUMPDEST PUSH1 0x2 DUP2 LT PUSH2 0xC2D JUMPI PUSH2 0xC2C PUSH2 0xBEF JUMP JUMPDEST JUMPDEST POP JUMP JUMPDEST PUSH0 DUP2 SWAP1 POP PUSH2 0xC3D DUP3 PUSH2 0xC1C JUMP JUMPDEST SWAP2 SWAP1 POP JUMP JUMPDEST PUSH0 PUSH2 0xC4C DUP3 PUSH2 0xC30 JUMP JUMPDEST SWAP1 POP SWAP2 SWAP1 POP JUMP JUMPDEST PUSH2 0xC5C DUP2 PUSH2 0xC42 JUMP JUMPDEST DUP3 MSTORE POP POP JUMP JUMPDEST PUSH0 PUSH1 0x20 DUP3 ADD SWAP1 POP PUSH2 0xC75 PUSH0 DUP4 ADD DUP5 PUSH2 0xC53 JUMP JUMPDEST SWAP3 SWAP2 POP POP JUMP JUMPDEST PUSH32 0x4E487B7100000000000000000000000000000000000000000000000000000000 PUSH0 MSTORE PUSH1 0x11 PUSH1 0x4 MSTORE PUSH1 0x24 PUSH0 REVERT JUMPDEST PUSH0 PUSH2 0xCB2 DUP3 PUSH2 0x7F2 JUMP JUMPDEST SWAP2 POP PUSH2 0xCBD DUP4 PUSH2 0x7F2 JUMP JUMPDEST SWAP3 POP DUP3 DUP3 ADD SWAP1 POP DUP1 DUP3 GT ISZERO PUSH2 0xCD5 JUMPI PUSH2 0xCD4 PUSH2 0xC7B JUMP JUMPDEST JUMPDEST SWAP3 SWAP2 POP POP JUMP JUMPDEST PUSH0 PUSH2 0xCE5 DUP3 PUSH2 0x7F2 JUMP JUMPDEST SWAP2 POP PUSH32 0xFFFFFFFFFFFFFFFFFFFFFFFFFFFFFFFFFFFFFFFFFFFFFFFFFFFFFFFFFFFFFFFF DUP3 SUB PUSH2 0xD17 JUMPI PUSH2 0xD16 PUSH2 0xC7B JUMP JUMPDEST JUMPDEST PUSH1 0x1 DUP3 ADD SWAP1 POP SWAP2 SWAP1 POP JUMP JUMPDEST PUSH0 PUSH2 0xD34 PUSH2 0xD2F DUP5 PUSH2 0x9CC JUMP JUMPDEST PUSH2 0x9B2 JUMP JUMPDEST SWAP1 POP DUP3 DUP2 MSTORE PUSH1 0x20 DUP2 ADD DUP5 DUP5 DUP5 ADD GT ISZERO PUSH2 0xD50 JUMPI PUSH2 0xD4F PUSH2 0x950 JUMP JUMPDEST JUMPDEST PUSH2 0xD5B DUP5 DUP3 DUP6 PUSH2 0x8D6 JUMP JUMPDEST POP SWAP4 SWAP3 POP POP POP JUMP JUMPDEST PUSH0 DUP3 PUSH1 0x1F DUP4 ADD SLT PUSH2 0xD77 JUMPI PUSH2 0xD76 PUSH2 0x94C JUMP JUMPDEST JUMPDEST DUP2 MLOAD PUSH2 0xD87 DUP5 DUP3 PUSH1 0x20 DUP7 ADD PUSH2 0xD22 JUMP JUMPDEST SWAP2 POP POP SWAP3 SWAP2 POP POP JUMP JUMPDEST PUSH0 PUSH1 0x20 DUP3 DUP5 SUB SLT ISZERO PUSH2 0xDA5 JUMPI PUSH2 0xDA4 PUSH2 0x82C JUMP JUMPDEST JUMPDEST PUSH0 DUP3 ADD MLOAD PUSH8 0xFFFFFFFFFFFFFFFF DUP2 GT ISZERO PUSH2 0xDC2 JUMPI PUSH2 0xDC1 PUSH2 0x830 JUMP JUMPDEST JUMPDEST PUSH2 0xDCE DUP5 DUP3 DUP6 ADD PUSH2 0xD63 JUMP JUMPDEST SWAP2 POP POP SWAP3 SWAP2 POP POP JUMP JUMPDEST PUSH32 0x4E487B7100000000000000000000000000000000000000000000000000000000 PUSH0 MSTORE PUSH1 0x22 PUSH1 0x4 MSTORE PUSH1 0x24 PUSH0 REVERT JUMPDEST PUSH0 PUSH1 0x2 DUP3 DIV SWAP1 POP PUSH1 0x1 DUP3 AND DUP1 PUSH2 0xE1B JUMPI PUSH1 0x7F DUP3 AND SWAP2 POP JUMPDEST PUSH1 0x20 DUP3 LT DUP2 SUB PUSH2 0xE2E JUMPI PUSH2 0xE2D PUSH2 0xDD7 JUMP JUMPDEST JUMPDEST POP SWAP2 SWAP1 POP JUMP JUMPDEST PUSH0 DUP2 SWAP1 POP DUP2 PUSH0 MSTORE PUSH1 0x20 PUSH0 KECCAK256 SWAP1 POP SWAP2 SWAP1 POP JUMP JUMPDEST PUSH0 PUSH1 0x20 PUSH1 0x1F DUP4 ADD DIV SWAP1 POP SWAP2 SWAP1 POP JUMP JUMPDEST PUSH0 DUP3 DUP3 SHL SWAP1 POP SWAP3 SWAP2 POP POP JUMP JUMPDEST PUSH0 PUSH1 0x8 DUP4 MUL PUSH2 0xE90 PUSH32 0xFFFFFFFFFFFFFFFFFFFFFFFFFFFFFFFFFFFFFFFFFFFFFFFFFFFFFFFFFFFFFFFF DUP3 PUSH2 0xE55 JUMP JUMPDEST PUSH2 0xE9A DUP7 DUP4 PUSH2 0xE55 JUMP JUMPDEST SWAP6 POP DUP1 NOT DUP5 AND SWAP4 POP DUP1 DUP7 AND DUP5 OR SWAP3 POP POP POP SWAP4 SWAP3 POP POP POP JUMP JUMPDEST PUSH0 DUP2 SWAP1 POP SWAP2 SWAP1 POP JUMP JUMPDEST PUSH0 PUSH2 0xED5 PUSH2 0xED0 PUSH2 0xECB DUP5 PUSH2 0x7F2 JUMP JUMPDEST PUSH2 0xEB2 JUMP JUMPDEST PUSH2 0x7F2 JUMP JUMPDEST SWAP1 POP SWAP2 SWAP1 POP JUMP JUMPDEST PUSH0 DUP2 SWAP1 POP SWAP2 SWAP1 POP JUMP JUMPDEST PUSH2 0xEEE DUP4 PUSH2 0xEBB JUMP JUMPDEST PUSH2 0xF02 PUSH2 0xEFA DUP3 PUSH2 0xEDC JUMP JUMPDEST DUP5 DUP5 SLOAD PUSH2 0xE61 JUMP JUMPDEST DUP3 SSTORE POP POP POP POP JUMP JUMPDEST PUSH0 SWAP1 JUMP JUMPDEST PUSH2 0xF16 PUSH2 0xF0A JUMP JUMPDEST PUSH2 0xF21 DUP2 DUP5 DUP5 PUSH2 0xEE5 JUMP JUMPDEST POP POP POP JUMP JUMPDEST JUMPDEST DUP2 DUP2 LT ISZERO PUSH2 0xF44 JUMPI PUSH2 0xF39 PUSH0 DUP3 PUSH2 0xF0E JUMP JUMPDEST PUSH1 0x1 DUP2 ADD SWAP1 POP PUSH2 0xF27 JUMP JUMPDEST POP POP JUMP JUMPDEST PUSH1 0x1F DUP3 GT ISZERO PUSH2 0xF89 JUMPI PUSH2 0xF5A DUP2 PUSH2 0xE34 JUMP JUMPDEST PUSH2 0xF63 DUP5 PUSH2 0xE46 JUMP JUMPDEST DUP2 ADD PUSH1 0x20 DUP6 LT ISZERO PUSH2 0xF72 JUMPI DUP2 SWAP1 POP JUMPDEST PUSH2 0xF86 PUSH2 0xF7E DUP6 PUSH2 0xE46 JUMP JUMPDEST DUP4 ADD DUP3 PUSH2 0xF26 JUMP JUMPDEST POP POP JUMPDEST POP POP POP JUMP JUMPDEST PUSH0 DUP3 DUP3 SHR SWAP1 POP SWAP3 SWAP2 POP POP JUMP JUMPDEST PUSH0 PUSH2 0xFA9 PUSH0 NOT DUP5 PUSH1 0x8 MUL PUSH2 0xF8E JUMP JUMPDEST NOT DUP1 DUP4 AND SWAP2 POP POP SWAP3 SWAP2 POP POP JUMP JUMPDEST PUSH0 PUSH2 0xFC1 DUP4 DUP4 PUSH2 0xF9A JUMP JUMPDEST SWAP2 POP DUP3 PUSH1 0x2 MUL DUP3 OR SWAP1 POP SWAP3 SWAP2 POP POP JUMP JUMPDEST PUSH2 0xFDA DUP3 PUSH2 0x8BC JUMP JUMPDEST PUSH8 0xFFFFFFFFFFFFFFFF DUP2 GT ISZERO PUSH2 0xFF3 JUMPI PUSH2 0xFF2 PUSH2 0x954 JUMP JUMPDEST JUMPDEST PUSH2 0xFFD DUP3 SLOAD PUSH2 0xE04 JUMP JUMPDEST PUSH2 0x1008 DUP3 DUP3 DUP6 PUSH2 0xF48 JUMP JUMPDEST PUSH0 PUSH1 0x20 SWAP1 POP PUSH1 0x1F DUP4 GT PUSH1 0x1 DUP2 EQ PUSH2 0x1039 JUMPI PUSH0 DUP5 ISZERO PUSH2 0x1027 JUMPI DUP3 DUP8 ADD MLOAD SWAP1 POP JUMPDEST PUSH2 0x1031 DUP6 DUP3 PUSH2 0xFB6 JUMP JUMPDEST DUP7 SSTORE POP PUSH2 0x1098 JUMP JUMPDEST PUSH1 0x1F NOT DUP5 AND PUSH2 0x1047 DUP7 PUSH2 0xE34 JUMP JUMPDEST PUSH0 JUMPDEST DUP3 DUP2 LT ISZERO PUSH2 0x106E JUMPI DUP5 DUP10 ADD MLOAD DUP3 SSTORE PUSH1 0x1 DUP3 ADD SWAP2 POP PUSH1 0x20 DUP6 ADD SWAP5 POP PUSH1 0x20 DUP2 ADD SWAP1 POP PUSH2 0x1049 JUMP JUMPDEST DUP7 DUP4 LT ISZERO PUSH2 0x108B JUMPI DUP5 DUP10 ADD MLOAD PUSH2 0x1087 PUSH1 0x1F DUP10 AND DUP3 PUSH2 0xF9A JUMP JUMPDEST DUP4 SSTORE POP JUMPDEST PUSH1 0x1 PUSH1 0x2 DUP9 MUL ADD DUP9 SSTORE POP POP POP JUMPDEST POP POP POP POP POP POP JUMP JUMPDEST PUSH0 DUP2 SWAP1 POP SWAP3 SWAP2 POP POP JUMP JUMPDEST PUSH0 PUSH2 0x10B4 DUP3 PUSH2 0x8BC JUMP JUMPDEST PUSH2 0x10BE DUP2 DUP6 PUSH2 0x10A0 JUMP JUMPDEST SWAP4 POP PUSH2 0x10CE DUP2 DUP6 PUSH1 0x20 DUP7 ADD PUSH2 0x8D6 JUMP JUMPDEST DUP1 DUP5 ADD SWAP2 POP POP SWAP3 SWAP2 POP POP JUMP JUMPDEST PUSH0 PUSH2 0x10E5 DUP3 DUP5 PUSH2 0x10AA JUMP JUMPDEST SWAP2 POP DUP2 SWAP1 POP SWAP3 SWAP2 POP POP JUMP JUMPDEST PUSH0 PUSH2 0x10FB DUP4 DUP6 PUSH2 0x10A0 JUMP JUMPDEST SWAP4 POP PUSH2 0x1108 DUP4 DUP6 DUP5 PUSH2 0x9FC JUMP JUMPDEST DUP3 DUP5 ADD SWAP1 POP SWAP4 SWAP3 POP POP POP JUMP JUMPDEST PUSH32 0x20697320617765736F6D65210000000000000000000000000000000000000000 PUSH0 DUP3 ADD MSTORE POP JUMP JUMPDEST PUSH0 PUSH2 0x1148 PUSH1 0xC DUP4 PUSH2 0x10A0 JUMP JUMPDEST SWAP2 POP PUSH2 0x1153 DUP3 PUSH2 0x1114 JUMP JUMPDEST PUSH1 0xC DUP3 ADD SWAP1 POP SWAP2 SWAP1 POP JUMP JUMPDEST PUSH0 PUSH2 0x116A DUP3 DUP5 DUP7 PUSH2 0x10F0 JUMP JUMPDEST SWAP2 POP PUSH2 0x1175 DUP3 PUSH2 0x113C JUMP JUMPDEST SWAP2 POP DUP2 SWAP1 POP SWAP4 SWAP3 POP POP POP JUMP JUMPDEST PUSH0 PUSH20 0xFFFFFFFFFFFFFFFFFFFFFFFFFFFFFFFFFFFFFFFF DUP3 AND SWAP1 POP SWAP2 SWAP1 POP JUMP JUMPDEST PUSH0 PUSH2 0x11AA DUP3 PUSH2 0x1181 JUMP JUMPDEST SWAP1 POP SWAP2 SWAP1 POP JUMP JUMPDEST PUSH2 0x11BA DUP2 PUSH2 0x11A0 JUMP JUMPDEST DUP3 MSTORE POP POP JUMP JUMPDEST PUSH0 PUSH1 0x40 DUP3 ADD SWAP1 POP PUSH2 0x11D3 PUSH0 DUP4 ADD DUP6 PUSH2 0x7FB JUMP JUMPDEST PUSH2 0x11E0 PUSH1 0x20 DUP4 ADD DUP5 PUSH2 0x11B1 JUMP JUMPDEST SWAP4 SWAP3 POP POP POP JUMP INVALID LOG2 PUSH5 0x6970667358 0x22 SLT KECCAK256 0xE5 SWAP3 0xDB MUL DUP2 0xB4 0xC0 MLOAD 0xF 0x2E 0xD3 MULMOD DUP6 PUSH10 0x2BC9E5CBCA189505BF2E 0x4D CREATE 0xA8 0xC5 0xFC BASEFEE TIMESTAMP PUSH28 0x64736F6C634300081A00330000000000000000000000000000000000 "
				},
				"gasEstimates": {
					"creation": {
						"codeDepositCost": "927400",
						"executionCost": "960",
						"totalCost": "928360"
					},
					"external": {
						"activatecontract()": "24495",
						"addPerson(string,uint256)": "infinite",
						"addPersonstringname(string,uint256)": "infinite",
						"callInternalFunction()": "infinite",
						"concatenateString(string)": "infinite",
						"deactivatecontract()": "24453",
						"externalFunction()": "infinite",
						"favoriteNumber()": "2492",
						"fovoriteNumbers(uint256)": "infinite",
						"getFavoriteNumber()": "2454",
						"isActive()": "2643",
						"isGreaterThan(uint256)": "2846",
						"nameToFavoriteNumber(string)": "infinite",
						"people(uint256)": "infinite",
						"state()": "2642",
						"store(uint256)": "22604",
						"storeNumber(uint256)": "infinite",
						"sumToFavoriteNumber()": "infinite",
						"testExternalFuntion()": "infinite",
						"updateNumber(uint256)": "infinite"
					},
					"internal": {
						"internalFunction()": "infinite"
					}
				},
				"methodIdentifiers": {
					"activatecontract()": "87542eb3",
					"addPerson(string,uint256)": "6f760f41",
					"addPersonstringname(string,uint256)": "712248d3",
					"callInternalFunction()": "8701f8ca",
					"concatenateString(string)": "b39e12b5",
					"deactivatecontract()": "0a8a3d74",
					"externalFunction()": "3a32b549",
					"favoriteNumber()": "471f7cdf",
					"fovoriteNumbers(uint256)": "14286bd2",
					"getFavoriteNumber()": "a621d15e",
					"isActive()": "22f3e2d4",
					"isGreaterThan(uint256)": "cb6a33f8",
					"nameToFavoriteNumber(string)": "8bab8dd5",
					"people(uint256)": "9e7a13ad",
					"state()": "c19d93fb",
					"store(uint256)": "6057361d",
					"storeNumber(uint256)": "b6339418",
					"sumToFavoriteNumber()": "0cd2636e",
					"testExternalFuntion()": "43896a43",
					"updateNumber(uint256)": "1db05a88"
				}
			},
			"storageLayout": {
				"storage": [
					{
						"astId": 3,
						"contract": "simplestorage.sol:simplestorage",
						"label": "myfavoriteNumber",
						"offset": 0,
						"slot": "0",
						"type": "t_uint256"
					},
					{
						"astId": 12,
						"contract": "simplestorage.sol:simplestorage",
						"label": "fovoriteNumbers",
						"offset": 0,
						"slot": "1",
						"type": "t_array(t_uint256)dyn_storage"
					},
					{
						"astId": 21,
						"contract": "simplestorage.sol:simplestorage",
						"label": "people",
						"offset": 0,
						"slot": "2",
						"type": "t_array(t_struct(person)17_storage)dyn_storage"
					},
					{
						"astId": 27,
						"contract": "simplestorage.sol:simplestorage",
						"label": "state",
						"offset": 0,
						"slot": "3",
						"type": "t_enum(contractstate)24"
					},
					{
						"astId": 182,
						"contract": "simplestorage.sol:simplestorage",
						"label": "nameToFavoriteNumber",
						"offset": 0,
						"slot": "4",
						"type": "t_mapping(t_string_memory_ptr,t_uint256)"
					},
					{
						"astId": 198,
						"contract": "simplestorage.sol:simplestorage",
						"label": "favoriteNumber",
						"offset": 0,
						"slot": "5",
						"type": "t_uint256"
					}
				],
				"types": {
					"t_array(t_struct(person)17_storage)dyn_storage": {
						"base": "t_struct(person)17_storage",
						"encoding": "dynamic_array",
						"label": "struct simplestorage.person[]",
						"numberOfBytes": "32"
					},
					"t_array(t_uint256)dyn_storage": {
						"base": "t_uint256",
						"encoding": "dynamic_array",
						"label": "uint256[]",
						"numberOfBytes": "32"
					},
					"t_enum(contractstate)24": {
						"encoding": "inplace",
						"label": "enum simplestorage.contractstate",
						"numberOfBytes": "1"
					},
					"t_mapping(t_string_memory_ptr,t_uint256)": {
						"encoding": "mapping",
						"key": "t_string_memory_ptr",
						"label": "mapping(string => uint256)",
						"numberOfBytes": "32",
						"value": "t_uint256"
					},
					"t_string_memory_ptr": {
						"encoding": "bytes",
						"label": "string",
						"numberOfBytes": "32"
					},
					"t_string_storage": {
						"encoding": "bytes",
						"label": "string",
						"numberOfBytes": "32"
					},
					"t_struct(person)17_storage": {
						"encoding": "inplace",
						"label": "struct simplestorage.person",
						"members": [
							{
								"astId": 14,
								"contract": "simplestorage.sol:simplestorage",
								"label": "name",
								"offset": 0,
								"slot": "0",
								"type": "t_string_storage"
							},
							{
								"astId": 16,
								"contract": "simplestorage.sol:simplestorage",
								"label": "favoriteNumber",
								"offset": 0,
								"slot": "1",
								"type": "t_uint256"
							}
						],
						"numberOfBytes": "64"
					},
					"t_uint256": {
						"encoding": "inplace",
						"label": "uint256",
						"numberOfBytes": "32"
					}
				}
			},
			"userdoc": {
				"kind": "user",
				"methods": {},
				"version": 1
			}
		}
	}
}